{
  "contractName": "CourseMarket",
  "abi": [
    {
      "inputs": [
        {
          "internalType": "address",
          "name": "_tokenAddress",
          "type": "address"
        },
        {
          "internalType": "address",
          "name": "_certificateAddress",
          "type": "address"
        }
      ],
      "stateMutability": "nonpayable",
      "type": "constructor"
    },
    {
      "anonymous": false,
      "inputs": [
        {
          "indexed": true,
          "internalType": "uint256",
          "name": "courseId",
          "type": "uint256"
        },
        {
          "indexed": false,
          "internalType": "string",
          "name": "web2CourseId",
          "type": "string"
        },
        {
          "indexed": false,
          "internalType": "string",
          "name": "name",
          "type": "string"
        }
      ],
      "name": "CourseAdded",
      "type": "event"
    },
    {
      "anonymous": false,
      "inputs": [
        {
          "indexed": true,
          "internalType": "address",
          "name": "student",
          "type": "address"
        },
        {
          "indexed": true,
          "internalType": "uint256",
          "name": "courseId",
          "type": "uint256"
        },
        {
          "indexed": false,
          "internalType": "uint256",
          "name": "certificateId",
          "type": "uint256"
        }
      ],
      "name": "CourseCompleted",
      "type": "event"
    },
    {
      "anonymous": false,
      "inputs": [
        {
          "indexed": true,
          "internalType": "address",
          "name": "buyer",
          "type": "address"
        },
        {
          "indexed": true,
          "internalType": "uint256",
          "name": "courseId",
          "type": "uint256"
        },
        {
          "indexed": false,
          "internalType": "string",
          "name": "web2CourseId",
          "type": "string"
        }
      ],
      "name": "CoursePurchased",
      "type": "event"
    },
    {
      "anonymous": false,
      "inputs": [
        {
          "indexed": true,
          "internalType": "address",
          "name": "previousOwner",
          "type": "address"
        },
        {
          "indexed": true,
          "internalType": "address",
          "name": "newOwner",
          "type": "address"
        }
      ],
      "name": "OwnershipTransferred",
      "type": "event"
    },
    {
      "inputs": [],
      "name": "certificate",
      "outputs": [
        {
          "internalType": "contract CourseCertificate",
          "name": "",
          "type": "address"
        }
      ],
      "stateMutability": "view",
      "type": "function",
      "constant": true
    },
    {
      "inputs": [],
      "name": "courseCount",
      "outputs": [
        {
          "internalType": "uint256",
          "name": "",
          "type": "uint256"
        }
      ],
      "stateMutability": "view",
      "type": "function",
      "constant": true
    },
    {
      "inputs": [
        {
          "internalType": "uint256",
          "name": "",
          "type": "uint256"
        }
      ],
      "name": "courses",
      "outputs": [
        {
          "internalType": "string",
          "name": "web2CourseId",
          "type": "string"
        },
        {
          "internalType": "string",
          "name": "name",
          "type": "string"
        },
        {
          "internalType": "uint256",
          "name": "price",
          "type": "uint256"
        },
        {
          "internalType": "bool",
          "name": "isActive",
          "type": "bool"
        },
        {
          "internalType": "address",
          "name": "creator",
          "type": "address"
        }
      ],
      "stateMutability": "view",
      "type": "function",
      "constant": true
    },
    {
      "inputs": [],
      "name": "owner",
      "outputs": [
        {
          "internalType": "address",
          "name": "",
          "type": "address"
        }
      ],
      "stateMutability": "view",
      "type": "function",
      "constant": true
    },
    {
      "inputs": [],
      "name": "renounceOwnership",
      "outputs": [],
      "stateMutability": "nonpayable",
      "type": "function"
    },
    {
      "inputs": [
        {
          "internalType": "address",
          "name": "newOwner",
          "type": "address"
        }
      ],
      "name": "transferOwnership",
      "outputs": [],
      "stateMutability": "nonpayable",
      "type": "function"
    },
    {
      "inputs": [
        {
          "internalType": "address",
          "name": "",
          "type": "address"
        },
        {
          "internalType": "uint256",
          "name": "",
          "type": "uint256"
        }
      ],
      "name": "userCourses",
      "outputs": [
        {
          "internalType": "bool",
          "name": "",
          "type": "bool"
        }
      ],
      "stateMutability": "view",
      "type": "function",
      "constant": true
    },
    {
      "inputs": [
        {
          "internalType": "string",
          "name": "",
          "type": "string"
        }
      ],
      "name": "web2ToCourseId",
      "outputs": [
        {
          "internalType": "uint256",
          "name": "",
          "type": "uint256"
        }
      ],
      "stateMutability": "view",
      "type": "function",
      "constant": true
    },
    {
      "inputs": [],
      "name": "yiDengToken",
      "outputs": [
        {
          "internalType": "contract YiDengToken",
          "name": "",
          "type": "address"
        }
      ],
      "stateMutability": "view",
      "type": "function",
      "constant": true
    },
    {
      "inputs": [
        {
          "internalType": "string",
          "name": "web2CourseId",
          "type": "string"
        },
        {
          "internalType": "string",
          "name": "name",
          "type": "string"
        },
        {
          "internalType": "uint256",
          "name": "price",
          "type": "uint256"
        }
      ],
      "name": "addCourse",
      "outputs": [],
      "stateMutability": "nonpayable",
      "type": "function"
    },
    {
      "inputs": [
        {
          "internalType": "string",
          "name": "web2CourseId",
          "type": "string"
        }
      ],
      "name": "purchaseCourse",
      "outputs": [],
      "stateMutability": "nonpayable",
      "type": "function"
    },
    {
      "inputs": [
        {
          "internalType": "address",
          "name": "student",
          "type": "address"
        },
        {
          "internalType": "string",
          "name": "web2CourseId",
          "type": "string"
        }
      ],
      "name": "verifyCourseCompletion",
      "outputs": [],
      "stateMutability": "nonpayable",
      "type": "function"
    },
    {
      "inputs": [
        {
          "internalType": "address[]",
          "name": "students",
          "type": "address[]"
        },
        {
          "internalType": "string",
          "name": "web2CourseId",
          "type": "string"
        }
      ],
      "name": "batchVerifyCourseCompletion",
      "outputs": [],
      "stateMutability": "nonpayable",
      "type": "function"
    },
    {
      "inputs": [
        {
          "internalType": "address",
          "name": "user",
          "type": "address"
        },
        {
          "internalType": "string",
          "name": "web2CourseId",
          "type": "string"
        }
      ],
      "name": "hasCourse",
      "outputs": [
        {
          "internalType": "bool",
          "name": "",
          "type": "bool"
        }
      ],
      "stateMutability": "view",
      "type": "function",
      "constant": true
    }
  ],
  "bytecode": "0x60806040523480156200001157600080fd5b5060405162002cae38038062002cae833981810160405281019062000037919062000229565b6200006962000054620000f3640100000000026401000000009004565b620000fb640100000000026401000000009004565b81600160006101000a81548173ffffffffffffffffffffffffffffffffffffffff021916908373ffffffffffffffffffffffffffffffffffffffff16021790555080600260006101000a81548173ffffffffffffffffffffffffffffffffffffffff021916908373ffffffffffffffffffffffffffffffffffffffff160217905550505062000270565b600033905090565b60008060009054906101000a900473ffffffffffffffffffffffffffffffffffffffff169050816000806101000a81548173ffffffffffffffffffffffffffffffffffffffff021916908373ffffffffffffffffffffffffffffffffffffffff1602179055508173ffffffffffffffffffffffffffffffffffffffff168173ffffffffffffffffffffffffffffffffffffffff167f8be0079c531659141344cd1fd0a4f28419497f9722a3daafe3b4186f6b6457e060405160405180910390a35050565b600080fd5b600073ffffffffffffffffffffffffffffffffffffffff82169050919050565b6000620001f182620001c4565b9050919050565b6200020381620001e4565b81146200020f57600080fd5b50565b6000815190506200022381620001f8565b92915050565b60008060408385031215620002435762000242620001bf565b5b6000620002538582860162000212565b9250506020620002668582860162000212565b9150509250929050565b612a2e80620002806000396000f3fe608060405234801561001057600080fd5b5060043610610107576000357c01000000000000000000000000000000000000000000000000000000009004806393a05c20116100a9578063b62644cd11610083578063b62644cd1461025a578063dd403ce114610276578063f24fa63a146102a6578063f2fde38b146102c257610107565b806393a05c20146101c657806396f979d2146101f65780639b84006e1461022a57610107565b806366055159116100e5578063660551591461016457806367589b6f14610182578063715018a61461019e5780638da5cb5b146101a857610107565b80630262232b1461010c5780632dbf7b981461012a57806344a8ef1914610148575b600080fd5b6101146102de565b6040516101219190611779565b60405180910390f35b610132610304565b60405161013f91906117c7565b60405180910390f35b610162600480360381019061015d9190611972565b61032a565b005b61016c61054a565b6040516101799190611a0c565b60405180910390f35b61019c60048036038101906101979190611a27565b610550565b005b6101a6610a1b565b005b6101b0610a2f565b6040516101bd9190611a91565b60405180910390f35b6101e060048036038101906101db9190611ad8565b610a58565b6040516101ed9190611b33565b60405180910390f35b610210600480360381019061020b9190611b4e565b610a87565b604051610221959493929190611bfa565b60405180910390f35b610244600480360381019061023f9190611a27565b610bfa565b6040516102519190611a0c565b60405180910390f35b610274600480360381019061026f9190611d23565b610c28565b005b610290600480360381019061028b9190611d9b565b610e70565b60405161029d9190611b33565b60405180910390f35b6102c060048036038101906102bb9190611d9b565b610f3e565b005b6102dc60048036038101906102d79190611df7565b611269565b005b600160009054906101000a900473ffffffffffffffffffffffffffffffffffffffff1681565b600260009054906101000a900473ffffffffffffffffffffffffffffffffffffffff1681565b6103326112ec565b6000835111610376576040517f08c379a000000000000000000000000000000000000000000000000000000000815260040161036d90611e70565b60405180910390fd5b60006004846040516103889190611ecc565b908152602001604051809103902054146103d7576040517f08c379a00000000000000000000000000000000000000000000000000000000081526004016103ce90611f2f565b60405180910390fd5b600660008154809291906103ea90611f7e565b91905055506040518060a001604052808481526020018381526020018281526020016001151581526020013373ffffffffffffffffffffffffffffffffffffffff16815250600360006006548152602001908152602001600020600082015181600001908161045991906121ce565b50602082015181600101908161046f91906121ce565b506040820151816002015560608201518160030160006101000a81548160ff02191690831515021790555060808201518160030160016101000a81548173ffffffffffffffffffffffffffffffffffffffff021916908373ffffffffffffffffffffffffffffffffffffffff1602179055509050506006546004846040516104f79190611ecc565b9081526020016040518091039020819055506006547f60dc19c8b14fd3a7f20dd113bdacc08bd8cdbfc6d28dcf1169272fc32eaef6c3848460405161053d9291906122a0565b60405180910390a2505050565b60065481565b60006004826040516105629190611ecc565b9081526020016040518091039020549050600081116105b6576040517f08c379a00000000000000000000000000000000000000000000000000000000081526004016105ad90612323565b60405180910390fd5b6000600360008381526020019081526020016000206040518060a00160405290816000820180546105e690611ff5565b80601f016020809104026020016040519081016040528092919081815260200182805461061290611ff5565b801561065f5780601f106106345761010080835404028352916020019161065f565b820191906000526020600020905b81548152906001019060200180831161064257829003601f168201915b5050505050815260200160018201805461067890611ff5565b80601f01602080910402602001604051908101604052809291908181526020018280546106a490611ff5565b80156106f15780601f106106c6576101008083540402835291602001916106f1565b820191906000526020600020905b8154815290600101906020018083116106d457829003601f168201915b50505050508152602001600282015481526020016003820160009054906101000a900460ff161515151581526020016003820160019054906101000a900473ffffffffffffffffffffffffffffffffffffffff1673ffffffffffffffffffffffffffffffffffffffff1673ffffffffffffffffffffffffffffffffffffffff1681525050905080606001516107bb576040517f08c379a00000000000000000000000000000000000000000000000000000000081526004016107b29061238f565b60405180910390fd5b600560003373ffffffffffffffffffffffffffffffffffffffff1673ffffffffffffffffffffffffffffffffffffffff168152602001908152602001600020600083815260200190815260200160002060009054906101000a900460ff1615610859576040517f08c379a0000000000000000000000000000000000000000000000000000000008152600401610850906123fb565b60405180910390fd5b600160009054906101000a900473ffffffffffffffffffffffffffffffffffffffff1673ffffffffffffffffffffffffffffffffffffffff166323b872dd33836080015184604001516040518463ffffffff167c01000000000000000000000000000000000000000000000000000000000281526004016108dc9392919061241b565b6020604051808303816000875af11580156108fb573d6000803e3d6000fd5b505050506040513d601f19601f8201168201806040525081019061091f919061247e565b61095e576040517f08c379a0000000000000000000000000000000000000000000000000000000008152600401610955906124f7565b60405180910390fd5b6001600560003373ffffffffffffffffffffffffffffffffffffffff1673ffffffffffffffffffffffffffffffffffffffff168152602001908152602001600020600084815260200190815260200160002060006101000a81548160ff021916908315150217905550813373ffffffffffffffffffffffffffffffffffffffff167f1a04f8d389f43beccf2cc32092c53cb34d57ec70fd68693db2bfe79336db783c85604051610a0e9190612517565b60405180910390a3505050565b610a236112ec565b610a2d600061136a565b565b60008060009054906101000a900473ffffffffffffffffffffffffffffffffffffffff16905090565b60056020528160005260406000206020528060005260406000206000915091509054906101000a900460ff1681565b6003602052806000526040600020600091509050806000018054610aaa90611ff5565b80601f0160208091040260200160405190810160405280929190818152602001828054610ad690611ff5565b8015610b235780601f10610af857610100808354040283529160200191610b23565b820191906000526020600020905b815481529060010190602001808311610b0657829003601f168201915b505050505090806001018054610b3890611ff5565b80601f0160208091040260200160405190810160405280929190818152602001828054610b6490611ff5565b8015610bb15780601f10610b8657610100808354040283529160200191610bb1565b820191906000526020600020905b815481529060010190602001808311610b9457829003601f168201915b5050505050908060020154908060030160009054906101000a900460ff16908060030160019054906101000a900473ffffffffffffffffffffffffffffffffffffffff16905085565b6004818051602081018201805184825260208301602085012081835280955050505050506000915090505481565b610c306112ec565b60005b8251811015610e6b5760056000848381518110610c5357610c52612539565b5b602002602001015173ffffffffffffffffffffffffffffffffffffffff1673ffffffffffffffffffffffffffffffffffffffff1681526020019081526020016000206000600484604051610ca79190611ecc565b908152602001604051809103902054815260200190815260200160002060009054906101000a900460ff168015610daf5750600260009054906101000a900473ffffffffffffffffffffffffffffffffffffffff1673ffffffffffffffffffffffffffffffffffffffff16633c433ebe848381518110610d2a57610d29612539565b5b6020026020010151846040518363ffffffff167c0100000000000000000000000000000000000000000000000000000000028152600401610d6c929190612568565b602060405180830381865afa158015610d89573d6000803e3d6000fd5b505050506040513d601f19601f82011682018060405250810190610dad919061247e565b155b15610e58573073ffffffffffffffffffffffffffffffffffffffff1663f24fa63a848381518110610de357610de2612539565b5b6020026020010151846040518363ffffffff167c0100000000000000000000000000000000000000000000000000000000028152600401610e25929190612568565b600060405180830381600087803b158015610e3f57600080fd5b505af1158015610e53573d6000803e3d6000fd5b505050505b8080610e6390611f7e565b915050610c33565b505050565b600080600483604051610e839190611ecc565b908152602001604051809103902054905060008111610ed7576040517f08c379a0000000000000000000000000000000000000000000000000000000008152600401610ece90612323565b60405180910390fd5b600560008573ffffffffffffffffffffffffffffffffffffffff1673ffffffffffffffffffffffffffffffffffffffff168152602001908152602001600020600082815260200190815260200160002060009054906101000a900460ff1691505092915050565b610f466112ec565b6000600482604051610f589190611ecc565b908152602001604051809103902054905060008111610fac576040517f08c379a0000000000000000000000000000000000000000000000000000000008152600401610fa390612323565b60405180910390fd5b600560008473ffffffffffffffffffffffffffffffffffffffff1673ffffffffffffffffffffffffffffffffffffffff168152602001908152602001600020600082815260200190815260200160002060009054906101000a900460ff16611049576040517f08c379a0000000000000000000000000000000000000000000000000000000008152600401611040906125e4565b60405180910390fd5b600260009054906101000a900473ffffffffffffffffffffffffffffffffffffffff1673ffffffffffffffffffffffffffffffffffffffff16633c433ebe84846040518363ffffffff167c01000000000000000000000000000000000000000000000000000000000281526004016110c2929190612568565b602060405180830381865afa1580156110df573d6000803e3d6000fd5b505050506040513d601f19601f82011682018060405250810190611103919061247e565b15611143576040517f08c379a000000000000000000000000000000000000000000000000000000000815260040161113a90612650565b60405180910390fd5b600061114f848461142e565b90506000600260009054906101000a900473ffffffffffffffffffffffffffffffffffffffff1673ffffffffffffffffffffffffffffffffffffffff16636b55243d8686856040518463ffffffff167c01000000000000000000000000000000000000000000000000000000000281526004016111ce93929190612670565b6020604051808303816000875af11580156111ed573d6000803e3d6000fd5b505050506040513d601f19601f8201168201806040525081019061121191906126ca565b9050828573ffffffffffffffffffffffffffffffffffffffff167f69598479254610bc37273ec300171cd231505beb1ee68d360cbd78c1bd8182788360405161125a9190611a0c565b60405180910390a35050505050565b6112716112ec565b600073ffffffffffffffffffffffffffffffffffffffff168173ffffffffffffffffffffffffffffffffffffffff16036112e0576040517f08c379a00000000000000000000000000000000000000000000000000000000081526004016112d790612769565b60405180910390fd5b6112e98161136a565b50565b6112f4611462565b73ffffffffffffffffffffffffffffffffffffffff16611312610a2f565b73ffffffffffffffffffffffffffffffffffffffff1614611368576040517f08c379a000000000000000000000000000000000000000000000000000000000815260040161135f906127d5565b60405180910390fd5b565b60008060009054906101000a900473ffffffffffffffffffffffffffffffffffffffff169050816000806101000a81548173ffffffffffffffffffffffffffffffffffffffff021916908373ffffffffffffffffffffffffffffffffffffffff1602179055508173ffffffffffffffffffffffffffffffffffffffff168173ffffffffffffffffffffffffffffffffffffffff167f8be0079c531659141344cd1fd0a4f28419497f9722a3daafe3b4186f6b6457e060405160405180910390a35050565b60608161143a8461146a565b60405160200161144b9291906128b3565b604051602081830303815290604052905092915050565b600033905090565b60606114908273ffffffffffffffffffffffffffffffffffffffff16601460ff16611497565b9050919050565b6060600060028360026114aa91906128ed565b6114b4919061292f565b67ffffffffffffffff8111156114cd576114cc611811565b5b6040519080825280601f01601f1916602001820160405280156114ff5781602001600182028036833780820191505090505b5090507f30000000000000000000000000000000000000000000000000000000000000008160008151811061153757611536612539565b5b60200101907effffffffffffffffffffffffffffffffffffffffffffffffffffffffffffff1916908160001a9053507f78000000000000000000000000000000000000000000000000000000000000008160018151811061159b5761159a612539565b5b60200101907effffffffffffffffffffffffffffffffffffffffffffffffffffffffffffff1916908160001a905350600060018460026115db91906128ed565b6115e5919061292f565b90505b60018111156116ac577f3031323334353637383961626364656600000000000000000000000000000000600f86166010811061162757611626612539565b5b1a7f01000000000000000000000000000000000000000000000000000000000000000282828151811061165d5761165c612539565b5b60200101907effffffffffffffffffffffffffffffffffffffffffffffffffffffffffffff1916908160001a905350600485908060020a82049150509450806116a590612963565b90506115e8565b50600084146116f0576040517f08c379a00000000000000000000000000000000000000000000000000000000081526004016116e7906129d8565b60405180910390fd5b8091505092915050565b600073ffffffffffffffffffffffffffffffffffffffff82169050919050565b6000819050919050565b600061173f61173a611735846116fa565b61171a565b6116fa565b9050919050565b600061175182611724565b9050919050565b600061176382611746565b9050919050565b61177381611758565b82525050565b600060208201905061178e600083018461176a565b92915050565b600061179f82611724565b9050919050565b60006117b182611794565b9050919050565b6117c1816117a6565b82525050565b60006020820190506117dc60008301846117b8565b92915050565b6000604051905090565b600080fd5b600080fd5b600080fd5b600080fd5b6000601f19601f8301169050919050565b7f4e487b7100000000000000000000000000000000000000000000000000000000600052604160045260246000fd5b61184982611800565b810181811067ffffffffffffffff8211171561186857611867611811565b5b80604052505050565b600061187b6117e2565b90506118878282611840565b919050565b600067ffffffffffffffff8211156118a7576118a6611811565b5b6118b082611800565b9050602081019050919050565b82818337600083830152505050565b60006118df6118da8461188c565b611871565b9050828152602081018484840111156118fb576118fa6117fb565b5b6119068482856118bd565b509392505050565b600082601f830112611923576119226117f6565b5b81356119338482602086016118cc565b91505092915050565b6000819050919050565b61194f8161193c565b811461195a57600080fd5b50565b60008135905061196c81611946565b92915050565b60008060006060848603121561198b5761198a6117ec565b5b600084013567ffffffffffffffff8111156119a9576119a86117f1565b5b6119b58682870161190e565b935050602084013567ffffffffffffffff8111156119d6576119d56117f1565b5b6119e28682870161190e565b92505060406119f38682870161195d565b9150509250925092565b611a068161193c565b82525050565b6000602082019050611a2160008301846119fd565b92915050565b600060208284031215611a3d57611a3c6117ec565b5b600082013567ffffffffffffffff811115611a5b57611a5a6117f1565b5b611a678482850161190e565b91505092915050565b6000611a7b826116fa565b9050919050565b611a8b81611a70565b82525050565b6000602082019050611aa66000830184611a82565b92915050565b611ab581611a70565b8114611ac057600080fd5b50565b600081359050611ad281611aac565b92915050565b60008060408385031215611aef57611aee6117ec565b5b6000611afd85828601611ac3565b9250506020611b0e8582860161195d565b9150509250929050565b60008115159050919050565b611b2d81611b18565b82525050565b6000602082019050611b486000830184611b24565b92915050565b600060208284031215611b6457611b636117ec565b5b6000611b728482850161195d565b91505092915050565b600081519050919050565b600082825260208201905092915050565b60005b83811015611bb5578082015181840152602081019050611b9a565b60008484015250505050565b6000611bcc82611b7b565b611bd68185611b86565b9350611be6818560208601611b97565b611bef81611800565b840191505092915050565b600060a0820190508181036000830152611c148188611bc1565b90508181036020830152611c288187611bc1565b9050611c3760408301866119fd565b611c446060830185611b24565b611c516080830184611a82565b9695505050505050565b600067ffffffffffffffff821115611c7657611c75611811565b5b602082029050602081019050919050565b600080fd5b6000611c9f611c9a84611c5b565b611871565b90508083825260208201905060208402830185811115611cc257611cc1611c87565b5b835b81811015611ceb5780611cd78882611ac3565b845260208401935050602081019050611cc4565b5050509392505050565b600082601f830112611d0a57611d096117f6565b5b8135611d1a848260208601611c8c565b91505092915050565b60008060408385031215611d3a57611d396117ec565b5b600083013567ffffffffffffffff811115611d5857611d576117f1565b5b611d6485828601611cf5565b925050602083013567ffffffffffffffff811115611d8557611d846117f1565b5b611d918582860161190e565b9150509250929050565b60008060408385031215611db257611db16117ec565b5b6000611dc085828601611ac3565b925050602083013567ffffffffffffffff811115611de157611de06117f1565b5b611ded8582860161190e565b9150509250929050565b600060208284031215611e0d57611e0c6117ec565b5b6000611e1b84828501611ac3565b91505092915050565b7f5765623220636f757273652049442063616e6e6f7420626520656d7074790000600082015250565b6000611e5a601e83611b86565b9150611e6582611e24565b602082019050919050565b60006020820190508181036000830152611e8981611e4d565b9050919050565b600081905092915050565b6000611ea682611b7b565b611eb08185611e90565b9350611ec0818560208601611b97565b80840191505092915050565b6000611ed88284611e9b565b915081905092915050565b7f436f7572736520616c7265616479206578697374730000000000000000000000600082015250565b6000611f19601583611b86565b9150611f2482611ee3565b602082019050919050565b60006020820190508181036000830152611f4881611f0c565b9050919050565b7f4e487b7100000000000000000000000000000000000000000000000000000000600052601160045260246000fd5b6000611f898261193c565b91507fffffffffffffffffffffffffffffffffffffffffffffffffffffffffffffffff8203611fbb57611fba611f4f565b5b600182019050919050565b7f4e487b7100000000000000000000000000000000000000000000000000000000600052602260045260246000fd5b6000600282049050600182168061200d57607f821691505b6020821081036120205761201f611fc6565b5b50919050565b60008190508160005260206000209050919050565b60006020601f8301049050919050565b60008160020a8302905092915050565b60006008830261208b7fffffffffffffffffffffffffffffffffffffffffffffffffffffffffffffffff8261204b565b612095868361204b565b95508019841693508086168417925050509392505050565b60006120c86120c36120be8461193c565b61171a565b61193c565b9050919050565b6000819050919050565b6120e2836120ad565b6120f66120ee826120cf565b84845461205b565b825550505050565b600090565b61210b6120fe565b6121168184846120d9565b505050565b5b8181101561213a5761212f600082612103565b60018101905061211c565b5050565b601f82111561217f5761215081612026565b6121598461203b565b81016020851015612168578190505b61217c6121748561203b565b83018261211b565b50505b505050565b60008160020a8304905092915050565b60006121a560001984600802612184565b1980831691505092915050565b60006121be8383612194565b9150826002028217905092915050565b6121d782611b7b565b67ffffffffffffffff8111156121f0576121ef611811565b5b6121fa8254611ff5565b61220582828561213e565b600060209050601f8311600181146122385760008415612226578287015190505b61223085826121b2565b865550612298565b601f19841661224686612026565b60005b8281101561226e57848901518255600182019150602085019450602081019050612249565b8683101561228b5784890151612287601f891682612194565b8355505b6001600288020188555050505b505050505050565b600060408201905081810360008301526122ba8185611bc1565b905081810360208301526122ce8184611bc1565b90509392505050565b7f436f7572736520646f6573206e6f742065786973740000000000000000000000600082015250565b600061230d601583611b86565b9150612318826122d7565b602082019050919050565b6000602082019050818103600083015261233c81612300565b9050919050565b7f436f75727365206e6f7420616374697665000000000000000000000000000000600082015250565b6000612379601183611b86565b915061238482612343565b602082019050919050565b600060208201905081810360008301526123a88161236c565b9050919050565b7f416c726561647920707572636861736564000000000000000000000000000000600082015250565b60006123e5601183611b86565b91506123f0826123af565b602082019050919050565b60006020820190508181036000830152612414816123d8565b9050919050565b60006060820190506124306000830186611a82565b61243d6020830185611a82565b61244a60408301846119fd565b949350505050565b61245b81611b18565b811461246657600080fd5b50565b60008151905061247881612452565b92915050565b600060208284031215612494576124936117ec565b5b60006124a284828501612469565b91505092915050565b7f5472616e73666572206661696c65640000000000000000000000000000000000600082015250565b60006124e1600f83611b86565b91506124ec826124ab565b602082019050919050565b60006020820190508181036000830152612510816124d4565b9050919050565b600060208201905081810360008301526125318184611bc1565b905092915050565b7f4e487b7100000000000000000000000000000000000000000000000000000000600052603260045260246000fd5b600060408201905061257d6000830185611a82565b818103602083015261258f8184611bc1565b90509392505050565b7f436f75727365206e6f7420707572636861736564000000000000000000000000600082015250565b60006125ce601483611b86565b91506125d982612598565b602082019050919050565b600060208201905081810360008301526125fd816125c1565b9050919050565b7f436572746966696361746520616c726561647920697373756564000000000000600082015250565b600061263a601a83611b86565b915061264582612604565b602082019050919050565b600060208201905081810360008301526126698161262d565b9050919050565b60006060820190506126856000830186611a82565b81810360208301526126978185611bc1565b905081810360408301526126ab8184611bc1565b9050949350505050565b6000815190506126c481611946565b92915050565b6000602082840312156126e0576126df6117ec565b5b60006126ee848285016126b5565b91505092915050565b7f4f776e61626c653a206e6577206f776e657220697320746865207a65726f206160008201527f6464726573730000000000000000000000000000000000000000000000000000602082015250565b6000612753602683611b86565b915061275e826126f7565b604082019050919050565b6000602082019050818103600083015261278281612746565b9050919050565b7f4f776e61626c653a2063616c6c6572206973206e6f7420746865206f776e6572600082015250565b60006127bf602083611b86565b91506127ca82612789565b602082019050919050565b600060208201905081810360008301526127ee816127b2565b9050919050565b7f68747470733a2f2f6170692e796964656e672e636f6d2f63657274696669636160008201527f74652f0000000000000000000000000000000000000000000000000000000000602082015250565b6000612851602383611e90565b915061285c826127f5565b602382019050919050565b7f2f00000000000000000000000000000000000000000000000000000000000000600082015250565b600061289d600183611e90565b91506128a882612867565b600182019050919050565b60006128be82612844565b91506128ca8285611e9b565b91506128d582612890565b91506128e18284611e9b565b91508190509392505050565b60006128f88261193c565b91506129038361193c565b92508282026129118161193c565b9150828204841483151761292857612927611f4f565b5b5092915050565b600061293a8261193c565b91506129458361193c565b925082820190508082111561295d5761295c611f4f565b5b92915050565b600061296e8261193c565b91506000820361298157612980611f4f565b5b600182039050919050565b7f537472696e67733a20686578206c656e67746820696e73756666696369656e74600082015250565b60006129c2602083611b86565b91506129cd8261298c565b602082019050919050565b600060208201905081810360008301526129f1816129b5565b905091905056fea2646970667358221220522ca8cd92a7197281c2a1a5f8f5746cb16253b0e360bb4c53701c8a6505856c64736f6c63430008140033",
  "immutableReferences": {},
  "source": "// SPDX-License-Identifier: MIT\npragma solidity ^0.8.0;\n\nimport \"@openzeppelin/contracts/access/Ownable.sol\";\nimport \"@openzeppelin/contracts/utils/Strings.sol\";\nimport \"./YiDengToken.sol\";\nimport \"./CourseCertificate.sol\";\n\n/**\n * @title CourseMarket\n * @dev \n * \n */\ncontract CourseMarket is Ownable {\n    // \n    YiDengToken public yiDengToken;      // YiDeng\n    CourseCertificate public certificate; // NFT\n\n    /**\n     * @dev \n     * @param web2CourseId Web2ID\n     * @param name \n     * @param price (YD)\n     * @param isActive \n     * @param creator \n     */\n    struct Course {\n        string web2CourseId; // Web2ID\n        string name; // \n        uint256 price; // (YD)\n        bool isActive; // \n        address creator; // \n    }\n\n    // \n    mapping(uint256 => Course) public courses; // courseId => Course\n    mapping(string => uint256) public web2ToCourseId; // web2CourseId => courseIdWeb2IDID\n    mapping(address => mapping(uint256 => bool)) public userCourses; //  => ID => \n    uint256 public courseCount; // ID\n\n    /**\n     * @dev \n     * @param buyer \n     * @param courseId ID\n     * @param web2CourseId Web2ID\n     */\n    event CoursePurchased(\n        address indexed buyer,\n        uint256 indexed courseId,\n        string web2CourseId\n    );\n    \n    /**\n     * @dev \n     * @param student \n     * @param courseId ID\n     * @param certificateId ID\n     */\n    event CourseCompleted(\n        address indexed student,\n        uint256 indexed courseId,\n        uint256 certificateId\n    );\n    \n    /**\n     * @dev \n     * @param courseId ID\n     * @param web2CourseId Web2ID\n     * @param name \n     */\n    event CourseAdded(\n        uint256 indexed courseId,\n        string web2CourseId,\n        string name\n    );\n\n    /**\n     * @dev \n     * @param _tokenAddress YiDeng\n     * @param _certificateAddress NFT\n     */\n    constructor(address _tokenAddress, address _certificateAddress) {\n        yiDengToken = YiDengToken(payable(_tokenAddress));\n        certificate = CourseCertificate(payable(_certificateAddress));\n    }\n\n    /**\n     * @dev \n     * \n     * @param web2CourseId Web2ID\n     * @param name \n     * @param price (YD)\n     */\n    function addCourse(\n        string memory web2CourseId,\n        string memory name,\n        uint256 price\n    ) external onlyOwner {\n        require(\n            bytes(web2CourseId).length > 0,\n            \"Web2 course ID cannot be empty\"\n        );\n        require(web2ToCourseId[web2CourseId] == 0, \"Course already exists\");\n\n        courseCount++;\n\n        courses[courseCount] = Course({\n            web2CourseId: web2CourseId,\n            name: name,\n            price: price,\n            isActive: true,\n            creator: msg.sender\n        });\n\n        web2ToCourseId[web2CourseId] = courseCount;\n\n        emit CourseAdded(courseCount, web2CourseId, name);\n    }\n\n    /**\n     * @dev \n     * YD\n     * @param web2CourseId Web2ID\n     */\n    function purchaseCourse(string memory web2CourseId) external {\n        uint256 courseId = web2ToCourseId[web2CourseId];\n        require(courseId > 0, \"Course does not exist\");\n\n        Course memory course = courses[courseId];\n        require(course.isActive, \"Course not active\");\n        require(!userCourses[msg.sender][courseId], \"Already purchased\");\n\n        // \n        require(\n            yiDengToken.transferFrom(msg.sender, course.creator, course.price),\n            \"Transfer failed\"\n        );\n\n        userCourses[msg.sender][courseId] = true;\n        emit CoursePurchased(msg.sender, courseId, web2CourseId);\n    }\n\n    /**\n     * @dev \n     * \n     * @param student \n     * @param web2CourseId Web2ID\n     */\n    function verifyCourseCompletion(\n        address student,\n        string memory web2CourseId\n    ) external onlyOwner {\n        uint256 courseId = web2ToCourseId[web2CourseId];\n        require(courseId > 0, \"Course does not exist\");\n        require(userCourses[student][courseId], \"Course not purchased\");\n        require(\n            !certificate.hasCertificate(student, web2CourseId),\n            \"Certificate already issued\"\n        );\n\n        // URI\n        string memory metadataURI = generateCertificateURI(\n            student,\n            web2CourseId\n        );\n        \n        // NFT\n        uint256 tokenId = certificate.mintCertificate(\n            student,\n            web2CourseId,\n            metadataURI\n        );\n\n        emit CourseCompleted(student, courseId, tokenId);\n    }\n\n    /**\n     * @dev \n     * \n     * @param students \n     * @param web2CourseId Web2ID\n     */\n    function batchVerifyCourseCompletion(\n        address[] memory students,\n        string memory web2CourseId\n    ) external onlyOwner {\n        for (uint256 i = 0; i < students.length; i++) {\n            // \n            if (\n                userCourses[students[i]][web2ToCourseId[web2CourseId]] &&\n                !certificate.hasCertificate(students[i], web2CourseId)\n            ) {\n                //  this  external \n                this.verifyCourseCompletion(students[i], web2CourseId);\n            }\n        }\n    }\n\n    /**\n     * @dev \n     * @param user \n     * @param web2CourseId Web2ID\n     * @return bool true\n     */\n    function hasCourse(\n        address user,\n        string memory web2CourseId\n    ) external view returns (bool) {\n        uint256 courseId = web2ToCourseId[web2CourseId];\n        require(courseId > 0, \"Course does not exist\");\n        return userCourses[user][courseId];\n    }\n\n    /**\n     * @dev URI\n     * URIID\n     * @param student \n     * @param web2CourseId Web2ID\n     * @return string URI\n     */\n    function generateCertificateURI(\n        address student,\n        string memory web2CourseId\n    ) internal pure returns (string memory) {\n        return\n            string(\n                abi.encodePacked(\n                    \"https://api.yideng.com/certificate/\",\n                    web2CourseId,\n                    \"/\",\n                    Strings.toHexString(student)\n                )\n            );\n    }\n}\n",
  "sourcePath": "/Users/xiaoai/git/web3-university-contract/contracts/CourseMarket.sol",
  "compiler": {
    "name": "solc",
    "version": "0.8.20+commit.a1b79de6.Emscripten.clang"
  },
  "schemaVersion": "3.4.16",
  "updatedAt": "2025-03-30T07:18:15.178Z",
  "networkType": "ethereum",
  "devdoc": {
    "details": " ",
    "events": {
      "CourseAdded(uint256,string,string)": {
        "details": "",
        "params": {
          "courseId": "ID",
          "name": "",
          "web2CourseId": "Web2ID"
        }
      },
      "CourseCompleted(address,uint256,uint256)": {
        "details": "",
        "params": {
          "certificateId": "ID",
          "courseId": "ID",
          "student": ""
        }
      },
      "CoursePurchased(address,uint256,string)": {
        "details": "",
        "params": {
          "buyer": "",
          "courseId": "ID",
          "web2CourseId": "Web2ID"
        }
      }
    },
    "kind": "dev",
    "methods": {
      "addCourse(string,string,uint256)": {
        "details": " ",
        "params": {
          "name": "",
          "price": "(YD)",
          "web2CourseId": "Web2ID"
        }
      },
      "batchVerifyCourseCompletion(address[],string)": {
        "details": " ",
        "params": {
          "students": "",
          "web2CourseId": "Web2ID"
        }
      },
      "constructor": {
        "details": "",
        "params": {
          "_certificateAddress": "NFT",
          "_tokenAddress": "YiDeng"
        }
      },
      "hasCourse(address,string)": {
        "details": "",
        "params": {
          "user": "",
          "web2CourseId": "Web2ID"
        },
        "returns": {
          "_0": "bool true"
        }
      },
      "owner()": {
        "details": "Returns the address of the current owner."
      },
      "purchaseCourse(string)": {
        "details": " YD",
        "params": {
          "web2CourseId": "Web2ID"
        }
      },
      "renounceOwnership()": {
        "details": "Leaves the contract without owner. It will not be possible to call `onlyOwner` functions. Can only be called by the current owner. NOTE: Renouncing ownership will leave the contract without an owner, thereby disabling any functionality that is only available to the owner."
      },
      "transferOwnership(address)": {
        "details": "Transfers ownership of the contract to a new account (`newOwner`). Can only be called by the current owner."
      },
      "verifyCourseCompletion(address,string)": {
        "details": " ",
        "params": {
          "student": "",
          "web2CourseId": "Web2ID"
        }
      }
    },
    "title": "CourseMarket",
    "version": 1
  },
  "userdoc": {
    "kind": "user",
    "methods": {},
    "version": 1
  }
}