{
  "contractName": "CourseMarket",
  "abi": [
    {
      "inputs": [
        {
          "internalType": "address",
          "name": "_tokenAddress",
          "type": "address"
        },
        {
          "internalType": "address",
          "name": "_certificateAddress",
          "type": "address"
        }
      ],
      "stateMutability": "nonpayable",
      "type": "constructor"
    },
    {
      "anonymous": false,
      "inputs": [
        {
          "indexed": true,
          "internalType": "uint256",
          "name": "courseId",
          "type": "uint256"
        },
        {
          "indexed": false,
          "internalType": "string",
          "name": "web2CourseId",
          "type": "string"
        },
        {
          "indexed": false,
          "internalType": "string",
          "name": "name",
          "type": "string"
        }
      ],
      "name": "CourseAdded",
      "type": "event"
    },
    {
      "anonymous": false,
      "inputs": [
        {
          "indexed": true,
          "internalType": "address",
          "name": "student",
          "type": "address"
        },
        {
          "indexed": true,
          "internalType": "uint256",
          "name": "courseId",
          "type": "uint256"
        },
        {
          "indexed": false,
          "internalType": "uint256",
          "name": "certificateId",
          "type": "uint256"
        }
      ],
      "name": "CourseCompleted",
      "type": "event"
    },
    {
      "anonymous": false,
      "inputs": [
        {
          "indexed": true,
          "internalType": "address",
          "name": "buyer",
          "type": "address"
        },
        {
          "indexed": true,
          "internalType": "uint256",
          "name": "courseId",
          "type": "uint256"
        },
        {
          "indexed": false,
          "internalType": "string",
          "name": "web2CourseId",
          "type": "string"
        }
      ],
      "name": "CoursePurchased",
      "type": "event"
    },
    {
      "anonymous": false,
      "inputs": [
        {
          "indexed": true,
          "internalType": "uint256",
          "name": "courseId",
          "type": "uint256"
        },
        {
          "indexed": false,
          "internalType": "string",
          "name": "oldWeb2CourseId",
          "type": "string"
        },
        {
          "indexed": false,
          "internalType": "string",
          "name": "newWeb2CourseId",
          "type": "string"
        },
        {
          "indexed": false,
          "internalType": "string",
          "name": "name",
          "type": "string"
        },
        {
          "indexed": false,
          "internalType": "uint256",
          "name": "price",
          "type": "uint256"
        },
        {
          "indexed": false,
          "internalType": "bool",
          "name": "isActive",
          "type": "bool"
        }
      ],
      "name": "CourseUpdated",
      "type": "event"
    },
    {
      "anonymous": false,
      "inputs": [
        {
          "indexed": true,
          "internalType": "address",
          "name": "previousOwner",
          "type": "address"
        },
        {
          "indexed": true,
          "internalType": "address",
          "name": "newOwner",
          "type": "address"
        }
      ],
      "name": "OwnershipTransferred",
      "type": "event"
    },
    {
      "inputs": [],
      "name": "certificate",
      "outputs": [
        {
          "internalType": "contract CourseCertificate",
          "name": "",
          "type": "address"
        }
      ],
      "stateMutability": "view",
      "type": "function",
      "constant": true
    },
    {
      "inputs": [],
      "name": "courseCount",
      "outputs": [
        {
          "internalType": "uint256",
          "name": "",
          "type": "uint256"
        }
      ],
      "stateMutability": "view",
      "type": "function",
      "constant": true
    },
    {
      "inputs": [
        {
          "internalType": "uint256",
          "name": "",
          "type": "uint256"
        }
      ],
      "name": "courses",
      "outputs": [
        {
          "internalType": "string",
          "name": "web2CourseId",
          "type": "string"
        },
        {
          "internalType": "string",
          "name": "name",
          "type": "string"
        },
        {
          "internalType": "uint256",
          "name": "price",
          "type": "uint256"
        },
        {
          "internalType": "bool",
          "name": "isActive",
          "type": "bool"
        },
        {
          "internalType": "address",
          "name": "creator",
          "type": "address"
        }
      ],
      "stateMutability": "view",
      "type": "function",
      "constant": true
    },
    {
      "inputs": [],
      "name": "owner",
      "outputs": [
        {
          "internalType": "address",
          "name": "",
          "type": "address"
        }
      ],
      "stateMutability": "view",
      "type": "function",
      "constant": true
    },
    {
      "inputs": [],
      "name": "renounceOwnership",
      "outputs": [],
      "stateMutability": "nonpayable",
      "type": "function"
    },
    {
      "inputs": [
        {
          "internalType": "address",
          "name": "newOwner",
          "type": "address"
        }
      ],
      "name": "transferOwnership",
      "outputs": [],
      "stateMutability": "nonpayable",
      "type": "function"
    },
    {
      "inputs": [
        {
          "internalType": "address",
          "name": "",
          "type": "address"
        },
        {
          "internalType": "uint256",
          "name": "",
          "type": "uint256"
        }
      ],
      "name": "userCourses",
      "outputs": [
        {
          "internalType": "bool",
          "name": "",
          "type": "bool"
        }
      ],
      "stateMutability": "view",
      "type": "function",
      "constant": true
    },
    {
      "inputs": [
        {
          "internalType": "string",
          "name": "",
          "type": "string"
        }
      ],
      "name": "web2ToCourseId",
      "outputs": [
        {
          "internalType": "uint256",
          "name": "",
          "type": "uint256"
        }
      ],
      "stateMutability": "view",
      "type": "function",
      "constant": true
    },
    {
      "inputs": [],
      "name": "yiDengToken",
      "outputs": [
        {
          "internalType": "contract YiDengToken",
          "name": "",
          "type": "address"
        }
      ],
      "stateMutability": "view",
      "type": "function",
      "constant": true
    },
    {
      "inputs": [
        {
          "internalType": "string",
          "name": "web2CourseId",
          "type": "string"
        },
        {
          "internalType": "string",
          "name": "name",
          "type": "string"
        },
        {
          "internalType": "uint256",
          "name": "price",
          "type": "uint256"
        }
      ],
      "name": "addCourse",
      "outputs": [],
      "stateMutability": "nonpayable",
      "type": "function"
    },
    {
      "inputs": [
        {
          "internalType": "string",
          "name": "oldWeb2CourseId",
          "type": "string"
        },
        {
          "internalType": "string",
          "name": "newWeb2CourseId",
          "type": "string"
        },
        {
          "internalType": "string",
          "name": "name",
          "type": "string"
        },
        {
          "internalType": "uint256",
          "name": "price",
          "type": "uint256"
        },
        {
          "internalType": "bool",
          "name": "isActive",
          "type": "bool"
        }
      ],
      "name": "updateCourse",
      "outputs": [],
      "stateMutability": "nonpayable",
      "type": "function"
    },
    {
      "inputs": [
        {
          "internalType": "string",
          "name": "web2CourseId",
          "type": "string"
        }
      ],
      "name": "purchaseCourse",
      "outputs": [],
      "stateMutability": "nonpayable",
      "type": "function"
    },
    {
      "inputs": [
        {
          "internalType": "address",
          "name": "student",
          "type": "address"
        },
        {
          "internalType": "string",
          "name": "web2CourseId",
          "type": "string"
        }
      ],
      "name": "verifyCourseCompletion",
      "outputs": [],
      "stateMutability": "nonpayable",
      "type": "function"
    },
    {
      "inputs": [
        {
          "internalType": "address[]",
          "name": "students",
          "type": "address[]"
        },
        {
          "internalType": "string",
          "name": "web2CourseId",
          "type": "string"
        }
      ],
      "name": "batchVerifyCourseCompletion",
      "outputs": [],
      "stateMutability": "nonpayable",
      "type": "function"
    },
    {
      "inputs": [
        {
          "internalType": "address",
          "name": "user",
          "type": "address"
        },
        {
          "internalType": "string",
          "name": "web2CourseId",
          "type": "string"
        }
      ],
      "name": "hasCourse",
      "outputs": [
        {
          "internalType": "bool",
          "name": "",
          "type": "bool"
        }
      ],
      "stateMutability": "view",
      "type": "function",
      "constant": true
    }
  ],
  "bytecode": "0x60806040523480156200001157600080fd5b50604051620031bc380380620031bc833981810160405281019062000037919062000229565b6200006962000054620000f3640100000000026401000000009004565b620000fb640100000000026401000000009004565b81600160006101000a81548173ffffffffffffffffffffffffffffffffffffffff021916908373ffffffffffffffffffffffffffffffffffffffff16021790555080600260006101000a81548173ffffffffffffffffffffffffffffffffffffffff021916908373ffffffffffffffffffffffffffffffffffffffff160217905550505062000270565b600033905090565b60008060009054906101000a900473ffffffffffffffffffffffffffffffffffffffff169050816000806101000a81548173ffffffffffffffffffffffffffffffffffffffff021916908373ffffffffffffffffffffffffffffffffffffffff1602179055508173ffffffffffffffffffffffffffffffffffffffff168173ffffffffffffffffffffffffffffffffffffffff167f8be0079c531659141344cd1fd0a4f28419497f9722a3daafe3b4186f6b6457e060405160405180910390a35050565b600080fd5b600073ffffffffffffffffffffffffffffffffffffffff82169050919050565b6000620001f182620001c4565b9050919050565b6200020381620001e4565b81146200020f57600080fd5b50565b6000815190506200022381620001f8565b92915050565b60008060408385031215620002435762000242620001bf565b5b6000620002538582860162000212565b9250506020620002668582860162000212565b9150509250929050565b612f3c80620002806000396000f3fe608060405234801561001057600080fd5b5060043610610112576000357c01000000000000000000000000000000000000000000000000000000009004806393a05c20116100b4578063b62644cd11610083578063b62644cd14610281578063dd403ce11461029d578063f24fa63a146102cd578063f2fde38b146102e957610112565b806393a05c20146101d157806396f979d2146102015780639af04ffd146102355780639b84006e1461025157610112565b806366055159116100f0578063660551591461016f57806367589b6f1461018d578063715018a6146101a95780638da5cb5b146101b357610112565b80630262232b146101175780632dbf7b981461013557806344a8ef1914610153575b600080fd5b61011f610305565b60405161012c9190611a17565b60405180910390f35b61013d61032b565b60405161014a9190611a65565b60405180910390f35b61016d60048036038101906101689190611c10565b610351565b005b610177610571565b6040516101849190611caa565b60405180910390f35b6101a760048036038101906101a29190611cc5565b610577565b005b6101b1610a42565b005b6101bb610a56565b6040516101c89190611d2f565b60405180910390f35b6101eb60048036038101906101e69190611d76565b610a7f565b6040516101f89190611dd1565b60405180910390f35b61021b60048036038101906102169190611dec565b610aae565b60405161022c959493929190611e98565b60405180910390f35b61024f600480360381019061024a9190611f25565b610c21565b005b61026b60048036038101906102669190611cc5565b610e98565b6040516102789190611caa565b60405180910390f35b61029b600480360381019061029691906120bc565b610ec6565b005b6102b760048036038101906102b29190612134565b61110e565b6040516102c49190611dd1565b60405180910390f35b6102e760048036038101906102e29190612134565b6111dc565b005b61030360048036038101906102fe9190612190565b611507565b005b600160009054906101000a900473ffffffffffffffffffffffffffffffffffffffff1681565b600260009054906101000a900473ffffffffffffffffffffffffffffffffffffffff1681565b61035961158a565b600083511161039d576040517f08c379a000000000000000000000000000000000000000000000000000000000815260040161039490612209565b60405180910390fd5b60006004846040516103af9190612265565b908152602001604051809103902054146103fe576040517f08c379a00000000000000000000000000000000000000000000000000000000081526004016103f5906122c8565b60405180910390fd5b6006600081548092919061041190612317565b91905055506040518060a001604052808481526020018381526020018281526020016001151581526020013373ffffffffffffffffffffffffffffffffffffffff1681525060036000600654815260200190815260200160002060008201518160000190816104809190612567565b5060208201518160010190816104969190612567565b506040820151816002015560608201518160030160006101000a81548160ff02191690831515021790555060808201518160030160016101000a81548173ffffffffffffffffffffffffffffffffffffffff021916908373ffffffffffffffffffffffffffffffffffffffff16021790555090505060065460048460405161051e9190612265565b9081526020016040518091039020819055506006547f60dc19c8b14fd3a7f20dd113bdacc08bd8cdbfc6d28dcf1169272fc32eaef6c38484604051610564929190612639565b60405180910390a2505050565b60065481565b60006004826040516105899190612265565b9081526020016040518091039020549050600081116105dd576040517f08c379a00000000000000000000000000000000000000000000000000000000081526004016105d4906126bc565b60405180910390fd5b6000600360008381526020019081526020016000206040518060a001604052908160008201805461060d9061238e565b80601f01602080910402602001604051908101604052809291908181526020018280546106399061238e565b80156106865780601f1061065b57610100808354040283529160200191610686565b820191906000526020600020905b81548152906001019060200180831161066957829003601f168201915b5050505050815260200160018201805461069f9061238e565b80601f01602080910402602001604051908101604052809291908181526020018280546106cb9061238e565b80156107185780601f106106ed57610100808354040283529160200191610718565b820191906000526020600020905b8154815290600101906020018083116106fb57829003601f168201915b50505050508152602001600282015481526020016003820160009054906101000a900460ff161515151581526020016003820160019054906101000a900473ffffffffffffffffffffffffffffffffffffffff1673ffffffffffffffffffffffffffffffffffffffff1673ffffffffffffffffffffffffffffffffffffffff1681525050905080606001516107e2576040517f08c379a00000000000000000000000000000000000000000000000000000000081526004016107d990612728565b60405180910390fd5b600560003373ffffffffffffffffffffffffffffffffffffffff1673ffffffffffffffffffffffffffffffffffffffff168152602001908152602001600020600083815260200190815260200160002060009054906101000a900460ff1615610880576040517f08c379a000000000000000000000000000000000000000000000000000000000815260040161087790612794565b60405180910390fd5b600160009054906101000a900473ffffffffffffffffffffffffffffffffffffffff1673ffffffffffffffffffffffffffffffffffffffff166323b872dd33836080015184604001516040518463ffffffff167c0100000000000000000000000000000000000000000000000000000000028152600401610903939291906127b4565b6020604051808303816000875af1158015610922573d6000803e3d6000fd5b505050506040513d601f19601f820116820180604052508101906109469190612800565b610985576040517f08c379a000000000000000000000000000000000000000000000000000000000815260040161097c90612879565b60405180910390fd5b6001600560003373ffffffffffffffffffffffffffffffffffffffff1673ffffffffffffffffffffffffffffffffffffffff168152602001908152602001600020600084815260200190815260200160002060006101000a81548160ff021916908315150217905550813373ffffffffffffffffffffffffffffffffffffffff167f1a04f8d389f43beccf2cc32092c53cb34d57ec70fd68693db2bfe79336db783c85604051610a359190612899565b60405180910390a3505050565b610a4a61158a565b610a546000611608565b565b60008060009054906101000a900473ffffffffffffffffffffffffffffffffffffffff16905090565b60056020528160005260406000206020528060005260406000206000915091509054906101000a900460ff1681565b6003602052806000526040600020600091509050806000018054610ad19061238e565b80601f0160208091040260200160405190810160405280929190818152602001828054610afd9061238e565b8015610b4a5780601f10610b1f57610100808354040283529160200191610b4a565b820191906000526020600020905b815481529060010190602001808311610b2d57829003601f168201915b505050505090806001018054610b5f9061238e565b80601f0160208091040260200160405190810160405280929190818152602001828054610b8b9061238e565b8015610bd85780601f10610bad57610100808354040283529160200191610bd8565b820191906000526020600020905b815481529060010190602001808311610bbb57829003601f168201915b5050505050908060020154908060030160009054906101000a900460ff16908060030160019054906101000a900473ffffffffffffffffffffffffffffffffffffffff16905085565b610c2961158a565b6000855111610c6d576040517f08c379a0000000000000000000000000000000000000000000000000000000008152600401610c649061292d565b60405180910390fd5b6000845111610cb1576040517f08c379a0000000000000000000000000000000000000000000000000000000008152600401610ca8906129bf565b60405180910390fd5b6000600486604051610cc39190612265565b908152602001604051809103902054905060008111610d17576040517f08c379a0000000000000000000000000000000000000000000000000000000008152600401610d0e906126bc565b60405180910390fd5b6040518060a0016040528086815260200185815260200184815260200183151581526020013373ffffffffffffffffffffffffffffffffffffffff16815250600360008381526020019081526020016000206000820151816000019081610d7e9190612567565b506020820151816001019081610d949190612567565b506040820151816002015560608201518160030160006101000a81548160ff02191690831515021790555060808201518160030160016101000a81548173ffffffffffffffffffffffffffffffffffffffff021916908373ffffffffffffffffffffffffffffffffffffffff1602179055509050506000600487604051610e1b9190612265565b90815260200160405180910390208190555080600486604051610e3e9190612265565b908152602001604051809103902081905550807f3b4ec8e03abe7da9aa1a2b703570e624507cc250aaf27a1b7263e0c67b960a8f8787878787604051610e889594939291906129df565b60405180910390a2505050505050565b6004818051602081018201805184825260208301602085012081835280955050505050506000915090505481565b610ece61158a565b60005b82518110156111095760056000848381518110610ef157610ef0612a47565b5b602002602001015173ffffffffffffffffffffffffffffffffffffffff1673ffffffffffffffffffffffffffffffffffffffff1681526020019081526020016000206000600484604051610f459190612265565b908152602001604051809103902054815260200190815260200160002060009054906101000a900460ff16801561104d5750600260009054906101000a900473ffffffffffffffffffffffffffffffffffffffff1673ffffffffffffffffffffffffffffffffffffffff16633c433ebe848381518110610fc857610fc7612a47565b5b6020026020010151846040518363ffffffff167c010000000000000000000000000000000000000000000000000000000002815260040161100a929190612a76565b602060405180830381865afa158015611027573d6000803e3d6000fd5b505050506040513d601f19601f8201168201806040525081019061104b9190612800565b155b156110f6573073ffffffffffffffffffffffffffffffffffffffff1663f24fa63a84838151811061108157611080612a47565b5b6020026020010151846040518363ffffffff167c01000000000000000000000000000000000000000000000000000000000281526004016110c3929190612a76565b600060405180830381600087803b1580156110dd57600080fd5b505af11580156110f1573d6000803e3d6000fd5b505050505b808061110190612317565b915050610ed1565b505050565b6000806004836040516111219190612265565b908152602001604051809103902054905060008111611175576040517f08c379a000000000000000000000000000000000000000000000000000000000815260040161116c906126bc565b60405180910390fd5b600560008573ffffffffffffffffffffffffffffffffffffffff1673ffffffffffffffffffffffffffffffffffffffff168152602001908152602001600020600082815260200190815260200160002060009054906101000a900460ff1691505092915050565b6111e461158a565b60006004826040516111f69190612265565b90815260200160405180910390205490506000811161124a576040517f08c379a0000000000000000000000000000000000000000000000000000000008152600401611241906126bc565b60405180910390fd5b600560008473ffffffffffffffffffffffffffffffffffffffff1673ffffffffffffffffffffffffffffffffffffffff168152602001908152602001600020600082815260200190815260200160002060009054906101000a900460ff166112e7576040517f08c379a00000000000000000000000000000000000000000000000000000000081526004016112de90612af2565b60405180910390fd5b600260009054906101000a900473ffffffffffffffffffffffffffffffffffffffff1673ffffffffffffffffffffffffffffffffffffffff16633c433ebe84846040518363ffffffff167c0100000000000000000000000000000000000000000000000000000000028152600401611360929190612a76565b602060405180830381865afa15801561137d573d6000803e3d6000fd5b505050506040513d601f19601f820116820180604052508101906113a19190612800565b156113e1576040517f08c379a00000000000000000000000000000000000000000000000000000000081526004016113d890612b5e565b60405180910390fd5b60006113ed84846116cc565b90506000600260009054906101000a900473ffffffffffffffffffffffffffffffffffffffff1673ffffffffffffffffffffffffffffffffffffffff16636b55243d8686856040518463ffffffff167c010000000000000000000000000000000000000000000000000000000002815260040161146c93929190612b7e565b6020604051808303816000875af115801561148b573d6000803e3d6000fd5b505050506040513d601f19601f820116820180604052508101906114af9190612bd8565b9050828573ffffffffffffffffffffffffffffffffffffffff167f69598479254610bc37273ec300171cd231505beb1ee68d360cbd78c1bd818278836040516114f89190611caa565b60405180910390a35050505050565b61150f61158a565b600073ffffffffffffffffffffffffffffffffffffffff168173ffffffffffffffffffffffffffffffffffffffff160361157e576040517f08c379a000000000000000000000000000000000000000000000000000000000815260040161157590612c77565b60405180910390fd5b61158781611608565b50565b611592611700565b73ffffffffffffffffffffffffffffffffffffffff166115b0610a56565b73ffffffffffffffffffffffffffffffffffffffff1614611606576040517f08c379a00000000000000000000000000000000000000000000000000000000081526004016115fd90612ce3565b60405180910390fd5b565b60008060009054906101000a900473ffffffffffffffffffffffffffffffffffffffff169050816000806101000a81548173ffffffffffffffffffffffffffffffffffffffff021916908373ffffffffffffffffffffffffffffffffffffffff1602179055508173ffffffffffffffffffffffffffffffffffffffff168173ffffffffffffffffffffffffffffffffffffffff167f8be0079c531659141344cd1fd0a4f28419497f9722a3daafe3b4186f6b6457e060405160405180910390a35050565b6060816116d884611708565b6040516020016116e9929190612dc1565b604051602081830303815290604052905092915050565b600033905090565b606061172e8273ffffffffffffffffffffffffffffffffffffffff16601460ff16611735565b9050919050565b6060600060028360026117489190612dfb565b6117529190612e3d565b67ffffffffffffffff81111561176b5761176a611aaf565b5b6040519080825280601f01601f19166020018201604052801561179d5781602001600182028036833780820191505090505b5090507f3000000000000000000000000000000000000000000000000000000000000000816000815181106117d5576117d4612a47565b5b60200101907effffffffffffffffffffffffffffffffffffffffffffffffffffffffffffff1916908160001a9053507f78000000000000000000000000000000000000000000000000000000000000008160018151811061183957611838612a47565b5b60200101907effffffffffffffffffffffffffffffffffffffffffffffffffffffffffffff1916908160001a905350600060018460026118799190612dfb565b6118839190612e3d565b90505b600181111561194a577f3031323334353637383961626364656600000000000000000000000000000000600f8616601081106118c5576118c4612a47565b5b1a7f0100000000000000000000000000000000000000000000000000000000000000028282815181106118fb576118fa612a47565b5b60200101907effffffffffffffffffffffffffffffffffffffffffffffffffffffffffffff1916908160001a905350600485908060020a820491505094508061194390612e71565b9050611886565b506000841461198e576040517f08c379a000000000000000000000000000000000000000000000000000000000815260040161198590612ee6565b60405180910390fd5b8091505092915050565b600073ffffffffffffffffffffffffffffffffffffffff82169050919050565b6000819050919050565b60006119dd6119d86119d384611998565b6119b8565b611998565b9050919050565b60006119ef826119c2565b9050919050565b6000611a01826119e4565b9050919050565b611a11816119f6565b82525050565b6000602082019050611a2c6000830184611a08565b92915050565b6000611a3d826119c2565b9050919050565b6000611a4f82611a32565b9050919050565b611a5f81611a44565b82525050565b6000602082019050611a7a6000830184611a56565b92915050565b6000604051905090565b600080fd5b600080fd5b600080fd5b600080fd5b6000601f19601f8301169050919050565b7f4e487b7100000000000000000000000000000000000000000000000000000000600052604160045260246000fd5b611ae782611a9e565b810181811067ffffffffffffffff82111715611b0657611b05611aaf565b5b80604052505050565b6000611b19611a80565b9050611b258282611ade565b919050565b600067ffffffffffffffff821115611b4557611b44611aaf565b5b611b4e82611a9e565b9050602081019050919050565b82818337600083830152505050565b6000611b7d611b7884611b2a565b611b0f565b905082815260208101848484011115611b9957611b98611a99565b5b611ba4848285611b5b565b509392505050565b600082601f830112611bc157611bc0611a94565b5b8135611bd1848260208601611b6a565b91505092915050565b6000819050919050565b611bed81611bda565b8114611bf857600080fd5b50565b600081359050611c0a81611be4565b92915050565b600080600060608486031215611c2957611c28611a8a565b5b600084013567ffffffffffffffff811115611c4757611c46611a8f565b5b611c5386828701611bac565b935050602084013567ffffffffffffffff811115611c7457611c73611a8f565b5b611c8086828701611bac565b9250506040611c9186828701611bfb565b9150509250925092565b611ca481611bda565b82525050565b6000602082019050611cbf6000830184611c9b565b92915050565b600060208284031215611cdb57611cda611a8a565b5b600082013567ffffffffffffffff811115611cf957611cf8611a8f565b5b611d0584828501611bac565b91505092915050565b6000611d1982611998565b9050919050565b611d2981611d0e565b82525050565b6000602082019050611d446000830184611d20565b92915050565b611d5381611d0e565b8114611d5e57600080fd5b50565b600081359050611d7081611d4a565b92915050565b60008060408385031215611d8d57611d8c611a8a565b5b6000611d9b85828601611d61565b9250506020611dac85828601611bfb565b9150509250929050565b60008115159050919050565b611dcb81611db6565b82525050565b6000602082019050611de66000830184611dc2565b92915050565b600060208284031215611e0257611e01611a8a565b5b6000611e1084828501611bfb565b91505092915050565b600081519050919050565b600082825260208201905092915050565b60005b83811015611e53578082015181840152602081019050611e38565b60008484015250505050565b6000611e6a82611e19565b611e748185611e24565b9350611e84818560208601611e35565b611e8d81611a9e565b840191505092915050565b600060a0820190508181036000830152611eb28188611e5f565b90508181036020830152611ec68187611e5f565b9050611ed56040830186611c9b565b611ee26060830185611dc2565b611eef6080830184611d20565b9695505050505050565b611f0281611db6565b8114611f0d57600080fd5b50565b600081359050611f1f81611ef9565b92915050565b600080600080600060a08688031215611f4157611f40611a8a565b5b600086013567ffffffffffffffff811115611f5f57611f5e611a8f565b5b611f6b88828901611bac565b955050602086013567ffffffffffffffff811115611f8c57611f8b611a8f565b5b611f9888828901611bac565b945050604086013567ffffffffffffffff811115611fb957611fb8611a8f565b5b611fc588828901611bac565b9350506060611fd688828901611bfb565b9250506080611fe788828901611f10565b9150509295509295909350565b600067ffffffffffffffff82111561200f5761200e611aaf565b5b602082029050602081019050919050565b600080fd5b600061203861203384611ff4565b611b0f565b9050808382526020820190506020840283018581111561205b5761205a612020565b5b835b8181101561208457806120708882611d61565b84526020840193505060208101905061205d565b5050509392505050565b600082601f8301126120a3576120a2611a94565b5b81356120b3848260208601612025565b91505092915050565b600080604083850312156120d3576120d2611a8a565b5b600083013567ffffffffffffffff8111156120f1576120f0611a8f565b5b6120fd8582860161208e565b925050602083013567ffffffffffffffff81111561211e5761211d611a8f565b5b61212a85828601611bac565b9150509250929050565b6000806040838503121561214b5761214a611a8a565b5b600061215985828601611d61565b925050602083013567ffffffffffffffff81111561217a57612179611a8f565b5b61218685828601611bac565b9150509250929050565b6000602082840312156121a6576121a5611a8a565b5b60006121b484828501611d61565b91505092915050565b7f5765623220636f757273652049442063616e6e6f7420626520656d7074790000600082015250565b60006121f3601e83611e24565b91506121fe826121bd565b602082019050919050565b60006020820190508181036000830152612222816121e6565b9050919050565b600081905092915050565b600061223f82611e19565b6122498185612229565b9350612259818560208601611e35565b80840191505092915050565b60006122718284612234565b915081905092915050565b7f436f7572736520616c7265616479206578697374730000000000000000000000600082015250565b60006122b2601583611e24565b91506122bd8261227c565b602082019050919050565b600060208201905081810360008301526122e1816122a5565b9050919050565b7f4e487b7100000000000000000000000000000000000000000000000000000000600052601160045260246000fd5b600061232282611bda565b91507fffffffffffffffffffffffffffffffffffffffffffffffffffffffffffffffff8203612354576123536122e8565b5b600182019050919050565b7f4e487b7100000000000000000000000000000000000000000000000000000000600052602260045260246000fd5b600060028204905060018216806123a657607f821691505b6020821081036123b9576123b861235f565b5b50919050565b60008190508160005260206000209050919050565b60006020601f8301049050919050565b60008160020a8302905092915050565b6000600883026124247fffffffffffffffffffffffffffffffffffffffffffffffffffffffffffffffff826123e4565b61242e86836123e4565b95508019841693508086168417925050509392505050565b600061246161245c61245784611bda565b6119b8565b611bda565b9050919050565b6000819050919050565b61247b83612446565b61248f61248782612468565b8484546123f4565b825550505050565b600090565b6124a4612497565b6124af818484612472565b505050565b5b818110156124d3576124c860008261249c565b6001810190506124b5565b5050565b601f821115612518576124e9816123bf565b6124f2846123d4565b81016020851015612501578190505b61251561250d856123d4565b8301826124b4565b50505b505050565b60008160020a8304905092915050565b600061253e6000198460080261251d565b1980831691505092915050565b6000612557838361252d565b9150826002028217905092915050565b61257082611e19565b67ffffffffffffffff81111561258957612588611aaf565b5b612593825461238e565b61259e8282856124d7565b600060209050601f8311600181146125d157600084156125bf578287015190505b6125c9858261254b565b865550612631565b601f1984166125df866123bf565b60005b82811015612607578489015182556001820191506020850194506020810190506125e2565b868310156126245784890151612620601f89168261252d565b8355505b6001600288020188555050505b505050505050565b600060408201905081810360008301526126538185611e5f565b905081810360208301526126678184611e5f565b90509392505050565b7f436f7572736520646f6573206e6f742065786973740000000000000000000000600082015250565b60006126a6601583611e24565b91506126b182612670565b602082019050919050565b600060208201905081810360008301526126d581612699565b9050919050565b7f436f75727365206e6f7420616374697665000000000000000000000000000000600082015250565b6000612712601183611e24565b915061271d826126dc565b602082019050919050565b6000602082019050818103600083015261274181612705565b9050919050565b7f416c726561647920707572636861736564000000000000000000000000000000600082015250565b600061277e601183611e24565b915061278982612748565b602082019050919050565b600060208201905081810360008301526127ad81612771565b9050919050565b60006060820190506127c96000830186611d20565b6127d66020830185611d20565b6127e36040830184611c9b565b949350505050565b6000815190506127fa81611ef9565b92915050565b60006020828403121561281657612815611a8a565b5b6000612824848285016127eb565b91505092915050565b7f5472616e73666572206661696c65640000000000000000000000000000000000600082015250565b6000612863600f83611e24565b915061286e8261282d565b602082019050919050565b6000602082019050818103600083015261289281612856565b9050919050565b600060208201905081810360008301526128b38184611e5f565b905092915050565b7f4f6c64205765623220636f757273652049442063616e6e6f7420626520656d7060008201527f7479000000000000000000000000000000000000000000000000000000000000602082015250565b6000612917602283611e24565b9150612922826128bb565b604082019050919050565b600060208201905081810360008301526129468161290a565b9050919050565b7f4e6577205765623220636f757273652049442063616e6e6f7420626520656d7060008201527f7479000000000000000000000000000000000000000000000000000000000000602082015250565b60006129a9602283611e24565b91506129b48261294d565b604082019050919050565b600060208201905081810360008301526129d88161299c565b9050919050565b600060a08201905081810360008301526129f98188611e5f565b90508181036020830152612a0d8187611e5f565b90508181036040830152612a218186611e5f565b9050612a306060830185611c9b565b612a3d6080830184611dc2565b9695505050505050565b7f4e487b7100000000000000000000000000000000000000000000000000000000600052603260045260246000fd5b6000604082019050612a8b6000830185611d20565b8181036020830152612a9d8184611e5f565b90509392505050565b7f436f75727365206e6f7420707572636861736564000000000000000000000000600082015250565b6000612adc601483611e24565b9150612ae782612aa6565b602082019050919050565b60006020820190508181036000830152612b0b81612acf565b9050919050565b7f436572746966696361746520616c726561647920697373756564000000000000600082015250565b6000612b48601a83611e24565b9150612b5382612b12565b602082019050919050565b60006020820190508181036000830152612b7781612b3b565b9050919050565b6000606082019050612b936000830186611d20565b8181036020830152612ba58185611e5f565b90508181036040830152612bb98184611e5f565b9050949350505050565b600081519050612bd281611be4565b92915050565b600060208284031215612bee57612bed611a8a565b5b6000612bfc84828501612bc3565b91505092915050565b7f4f776e61626c653a206e6577206f776e657220697320746865207a65726f206160008201527f6464726573730000000000000000000000000000000000000000000000000000602082015250565b6000612c61602683611e24565b9150612c6c82612c05565b604082019050919050565b60006020820190508181036000830152612c9081612c54565b9050919050565b7f4f776e61626c653a2063616c6c6572206973206e6f7420746865206f776e6572600082015250565b6000612ccd602083611e24565b9150612cd882612c97565b602082019050919050565b60006020820190508181036000830152612cfc81612cc0565b9050919050565b7f68747470733a2f2f6170692e796964656e672e636f6d2f63657274696669636160008201527f74652f0000000000000000000000000000000000000000000000000000000000602082015250565b6000612d5f602383612229565b9150612d6a82612d03565b602382019050919050565b7f2f00000000000000000000000000000000000000000000000000000000000000600082015250565b6000612dab600183612229565b9150612db682612d75565b600182019050919050565b6000612dcc82612d52565b9150612dd88285612234565b9150612de382612d9e565b9150612def8284612234565b91508190509392505050565b6000612e0682611bda565b9150612e1183611bda565b9250828202612e1f81611bda565b91508282048414831517612e3657612e356122e8565b5b5092915050565b6000612e4882611bda565b9150612e5383611bda565b9250828201905080821115612e6b57612e6a6122e8565b5b92915050565b6000612e7c82611bda565b915060008203612e8f57612e8e6122e8565b5b600182039050919050565b7f537472696e67733a20686578206c656e67746820696e73756666696369656e74600082015250565b6000612ed0602083611e24565b9150612edb82612e9a565b602082019050919050565b60006020820190508181036000830152612eff81612ec3565b905091905056fea26469706673582212201f6b76f5ec9d4c018c616e4369556e3a4a74c5912a1c99c38219dbfcdacb75ef64736f6c63430008140033",
  "immutableReferences": {},
  "source": "// SPDX-License-Identifier: MIT\npragma solidity ^0.8.0;\n\nimport \"@openzeppelin/contracts/access/Ownable.sol\";\nimport \"@openzeppelin/contracts/utils/Strings.sol\";\nimport \"./YiDengToken.sol\";\nimport \"./CourseCertificate.sol\";\n\n/**\n * @title CourseMarket\n * @dev \n * \n */\ncontract CourseMarket is Ownable {\n    // \n    YiDengToken public yiDengToken;      // YiDeng\n    CourseCertificate public certificate; // NFT\n\n    /**\n     * @dev \n     * @param web2CourseId Web2ID\n     * @param name \n     * @param price (YD)\n     * @param isActive \n     * @param creator \n     */\n    struct Course {\n        string web2CourseId; // Web2ID\n        string name; // \n        uint256 price; // (YD)\n        bool isActive; // \n        address creator; // \n    }\n\n    // \n    mapping(uint256 => Course) public courses; // courseId => Course\n    mapping(string => uint256) public web2ToCourseId; // web2CourseId => courseIdWeb2IDID\n    mapping(address => mapping(uint256 => bool)) public userCourses; //  => ID => \n    uint256 public courseCount; // ID\n\n    /**\n     * @dev \n     * @param buyer \n     * @param courseId ID\n     * @param web2CourseId Web2ID\n     */\n    event CoursePurchased(\n        address indexed buyer,\n        uint256 indexed courseId,\n        string web2CourseId\n    );\n    \n    /**\n     * @dev \n     * @param student \n     * @param courseId ID\n     * @param certificateId ID\n     */\n    event CourseCompleted(\n        address indexed student,\n        uint256 indexed courseId,\n        uint256 certificateId\n    );\n    \n    /**\n     * @dev \n     * @param courseId ID\n     * @param web2CourseId Web2ID\n     * @param name \n     */\n    event CourseAdded(\n        uint256 indexed courseId,\n        string web2CourseId,\n        string name\n    );\n\n    event CourseUpdated(\n        uint256 indexed courseId,\n        string oldWeb2CourseId,\n        string newWeb2CourseId,\n        string name,\n        uint256 price,\n        bool isActive\n    );\n\n    /**\n     * @dev \n     * @param _tokenAddress YiDeng\n     * @param _certificateAddress NFT\n     */\n    constructor(address _tokenAddress, address _certificateAddress) {\n        yiDengToken = YiDengToken(payable(_tokenAddress));\n        certificate = CourseCertificate(payable(_certificateAddress));\n    }\n\n    /**\n     * @dev \n     * \n     * @param web2CourseId Web2ID\n     * @param name \n     * @param price (YD)\n     */\n    function addCourse(\n        string memory web2CourseId,\n        string memory name,\n        uint256 price\n    ) external onlyOwner {\n        require(\n            bytes(web2CourseId).length > 0,\n            \"Web2 course ID cannot be empty\"\n        );\n        require(web2ToCourseId[web2CourseId] == 0, \"Course already exists\");\n\n        courseCount++;\n\n        courses[courseCount] = Course({\n            web2CourseId: web2CourseId,\n            name: name,\n            price: price,\n            isActive: true,\n            creator: msg.sender\n        });\n\n        web2ToCourseId[web2CourseId] = courseCount;\n\n        emit CourseAdded(courseCount, web2CourseId, name);\n    }\n\n    /**\n     * @dev \n     * \n     * @param oldWeb2CourseId Web2ID\n     * @param newWeb2CourseId Web2ID\n     * @param name \n     * @param price (YD)\n     */\n    function updateCourse(\n        string memory oldWeb2CourseId,\n        string memory newWeb2CourseId,\n        string memory name,\n        uint256 price,\n        bool isActive\n    ) external onlyOwner {\n        require(\n            bytes(oldWeb2CourseId).length > 0,\n            \"Old Web2 course ID cannot be empty\"\n        );\n        require(\n            bytes(newWeb2CourseId).length > 0,\n            \"New Web2 course ID cannot be empty\"\n        );\n\n        uint256 courseId = web2ToCourseId[oldWeb2CourseId];\n        require(courseId > 0, \"Course does not exist\");\n\n        courses[courseId] = Course({\n            web2CourseId: newWeb2CourseId,\n            name: name,\n            price: price,\n            isActive: isActive,\n            creator: msg.sender\n        });\n\n        web2ToCourseId[oldWeb2CourseId] = 0;\n        web2ToCourseId[newWeb2CourseId] = courseId;\n\n        emit CourseUpdated(courseId, oldWeb2CourseId, newWeb2CourseId, name, price, isActive);\n    }\n\n    /**\n     * @dev \n     * YD\n     * @param web2CourseId Web2ID\n     */\n    function purchaseCourse(string memory web2CourseId) external {\n        uint256 courseId = web2ToCourseId[web2CourseId];\n        require(courseId > 0, \"Course does not exist\");\n\n        Course memory course = courses[courseId];\n        require(course.isActive, \"Course not active\");\n        require(!userCourses[msg.sender][courseId], \"Already purchased\");\n\n        // \n        require(\n            yiDengToken.transferFrom(msg.sender, course.creator, course.price),\n            \"Transfer failed\"\n        );\n\n        userCourses[msg.sender][courseId] = true;\n        emit CoursePurchased(msg.sender, courseId, web2CourseId);\n    }\n\n    /**\n     * @dev \n     * \n     * @param student \n     * @param web2CourseId Web2ID\n     */\n    function verifyCourseCompletion(\n        address student,\n        string memory web2CourseId\n    ) external onlyOwner {\n        uint256 courseId = web2ToCourseId[web2CourseId];\n        require(courseId > 0, \"Course does not exist\");\n        require(userCourses[student][courseId], \"Course not purchased\");\n        require(\n            !certificate.hasCertificate(student, web2CourseId),\n            \"Certificate already issued\"\n        );\n\n        // URI\n        string memory metadataURI = generateCertificateURI(\n            student,\n            web2CourseId\n        );\n        \n        // NFT\n        uint256 tokenId = certificate.mintCertificate(\n            student,\n            web2CourseId,\n            metadataURI\n        );\n\n        emit CourseCompleted(student, courseId, tokenId);\n    }\n\n    /**\n     * @dev \n     * \n     * @param students \n     * @param web2CourseId Web2ID\n     */\n    function batchVerifyCourseCompletion(\n        address[] memory students,\n        string memory web2CourseId\n    ) external onlyOwner {\n        for (uint256 i = 0; i < students.length; i++) {\n            // \n            if (\n                userCourses[students[i]][web2ToCourseId[web2CourseId]] &&\n                !certificate.hasCertificate(students[i], web2CourseId)\n            ) {\n                //  this  external \n                this.verifyCourseCompletion(students[i], web2CourseId);\n            }\n        }\n    }\n\n    /**\n     * @dev \n     * @param user \n     * @param web2CourseId Web2ID\n     * @return bool true\n     */\n    function hasCourse(\n        address user,\n        string memory web2CourseId\n    ) external view returns (bool) {\n        uint256 courseId = web2ToCourseId[web2CourseId];\n        require(courseId > 0, \"Course does not exist\");\n        return userCourses[user][courseId];\n    }\n\n    /**\n     * @dev URI\n     * URIID\n     * @param student \n     * @param web2CourseId Web2ID\n     * @return string URI\n     */\n    function generateCertificateURI(\n        address student,\n        string memory web2CourseId\n    ) internal pure returns (string memory) {\n        return\n            string(\n                abi.encodePacked(\n                    \"https://api.yideng.com/certificate/\",\n                    web2CourseId,\n                    \"/\",\n                    Strings.toHexString(student)\n                )\n            );\n    }\n}\n",
  "sourcePath": "/Users/xiaoai/git/web3-university-contract/contracts/CourseMarket.sol",
  "compiler": {
    "name": "solc",
    "version": "0.8.20+commit.a1b79de6.Emscripten.clang"
  },
  "schemaVersion": "3.4.16",
  "updatedAt": "2025-04-13T01:53:29.424Z",
  "networkType": "ethereum",
  "devdoc": {
    "details": " ",
    "events": {
      "CourseAdded(uint256,string,string)": {
        "details": "",
        "params": {
          "courseId": "ID",
          "name": "",
          "web2CourseId": "Web2ID"
        }
      },
      "CourseCompleted(address,uint256,uint256)": {
        "details": "",
        "params": {
          "certificateId": "ID",
          "courseId": "ID",
          "student": ""
        }
      },
      "CoursePurchased(address,uint256,string)": {
        "details": "",
        "params": {
          "buyer": "",
          "courseId": "ID",
          "web2CourseId": "Web2ID"
        }
      }
    },
    "kind": "dev",
    "methods": {
      "addCourse(string,string,uint256)": {
        "details": " ",
        "params": {
          "name": "",
          "price": "(YD)",
          "web2CourseId": "Web2ID"
        }
      },
      "batchVerifyCourseCompletion(address[],string)": {
        "details": " ",
        "params": {
          "students": "",
          "web2CourseId": "Web2ID"
        }
      },
      "constructor": {
        "details": "",
        "params": {
          "_certificateAddress": "NFT",
          "_tokenAddress": "YiDeng"
        }
      },
      "hasCourse(address,string)": {
        "details": "",
        "params": {
          "user": "",
          "web2CourseId": "Web2ID"
        },
        "returns": {
          "_0": "bool true"
        }
      },
      "owner()": {
        "details": "Returns the address of the current owner."
      },
      "purchaseCourse(string)": {
        "details": " YD",
        "params": {
          "web2CourseId": "Web2ID"
        }
      },
      "renounceOwnership()": {
        "details": "Leaves the contract without owner. It will not be possible to call `onlyOwner` functions. Can only be called by the current owner. NOTE: Renouncing ownership will leave the contract without an owner, thereby disabling any functionality that is only available to the owner."
      },
      "transferOwnership(address)": {
        "details": "Transfers ownership of the contract to a new account (`newOwner`). Can only be called by the current owner."
      },
      "updateCourse(string,string,string,uint256,bool)": {
        "details": " ",
        "params": {
          "name": "",
          "newWeb2CourseId": "Web2ID",
          "oldWeb2CourseId": "Web2ID",
          "price": "(YD)"
        }
      },
      "verifyCourseCompletion(address,string)": {
        "details": " ",
        "params": {
          "student": "",
          "web2CourseId": "Web2ID"
        }
      }
    },
    "title": "CourseMarket",
    "version": 1
  },
  "userdoc": {
    "kind": "user",
    "methods": {},
    "version": 1
  }
}