{
  "contractName": "CourseCertificate",
  "abi": [
    {
      "inputs": [],
      "stateMutability": "nonpayable",
      "type": "constructor"
    },
    {
      "anonymous": false,
      "inputs": [
        {
          "indexed": true,
          "internalType": "address",
          "name": "owner",
          "type": "address"
        },
        {
          "indexed": true,
          "internalType": "address",
          "name": "approved",
          "type": "address"
        },
        {
          "indexed": true,
          "internalType": "uint256",
          "name": "tokenId",
          "type": "uint256"
        }
      ],
      "name": "Approval",
      "type": "event"
    },
    {
      "anonymous": false,
      "inputs": [
        {
          "indexed": true,
          "internalType": "address",
          "name": "owner",
          "type": "address"
        },
        {
          "indexed": true,
          "internalType": "address",
          "name": "operator",
          "type": "address"
        },
        {
          "indexed": false,
          "internalType": "bool",
          "name": "approved",
          "type": "bool"
        }
      ],
      "name": "ApprovalForAll",
      "type": "event"
    },
    {
      "anonymous": false,
      "inputs": [
        {
          "indexed": true,
          "internalType": "uint256",
          "name": "tokenId",
          "type": "uint256"
        },
        {
          "indexed": false,
          "internalType": "string",
          "name": "web2CourseId",
          "type": "string"
        },
        {
          "indexed": true,
          "internalType": "address",
          "name": "student",
          "type": "address"
        }
      ],
      "name": "CertificateMinted",
      "type": "event"
    },
    {
      "anonymous": false,
      "inputs": [
        {
          "indexed": true,
          "internalType": "bytes32",
          "name": "role",
          "type": "bytes32"
        },
        {
          "indexed": true,
          "internalType": "bytes32",
          "name": "previousAdminRole",
          "type": "bytes32"
        },
        {
          "indexed": true,
          "internalType": "bytes32",
          "name": "newAdminRole",
          "type": "bytes32"
        }
      ],
      "name": "RoleAdminChanged",
      "type": "event"
    },
    {
      "anonymous": false,
      "inputs": [
        {
          "indexed": true,
          "internalType": "bytes32",
          "name": "role",
          "type": "bytes32"
        },
        {
          "indexed": true,
          "internalType": "address",
          "name": "account",
          "type": "address"
        },
        {
          "indexed": true,
          "internalType": "address",
          "name": "sender",
          "type": "address"
        }
      ],
      "name": "RoleGranted",
      "type": "event"
    },
    {
      "anonymous": false,
      "inputs": [
        {
          "indexed": true,
          "internalType": "bytes32",
          "name": "role",
          "type": "bytes32"
        },
        {
          "indexed": true,
          "internalType": "address",
          "name": "account",
          "type": "address"
        },
        {
          "indexed": true,
          "internalType": "address",
          "name": "sender",
          "type": "address"
        }
      ],
      "name": "RoleRevoked",
      "type": "event"
    },
    {
      "anonymous": false,
      "inputs": [
        {
          "indexed": true,
          "internalType": "address",
          "name": "from",
          "type": "address"
        },
        {
          "indexed": true,
          "internalType": "address",
          "name": "to",
          "type": "address"
        },
        {
          "indexed": true,
          "internalType": "uint256",
          "name": "tokenId",
          "type": "uint256"
        }
      ],
      "name": "Transfer",
      "type": "event"
    },
    {
      "inputs": [],
      "name": "DEFAULT_ADMIN_ROLE",
      "outputs": [
        {
          "internalType": "bytes32",
          "name": "",
          "type": "bytes32"
        }
      ],
      "stateMutability": "view",
      "type": "function"
    },
    {
      "inputs": [],
      "name": "MINTER_ROLE",
      "outputs": [
        {
          "internalType": "bytes32",
          "name": "",
          "type": "bytes32"
        }
      ],
      "stateMutability": "view",
      "type": "function"
    },
    {
      "inputs": [
        {
          "internalType": "address",
          "name": "to",
          "type": "address"
        },
        {
          "internalType": "uint256",
          "name": "tokenId",
          "type": "uint256"
        }
      ],
      "name": "approve",
      "outputs": [],
      "stateMutability": "nonpayable",
      "type": "function"
    },
    {
      "inputs": [
        {
          "internalType": "address",
          "name": "owner",
          "type": "address"
        }
      ],
      "name": "balanceOf",
      "outputs": [
        {
          "internalType": "uint256",
          "name": "",
          "type": "uint256"
        }
      ],
      "stateMutability": "view",
      "type": "function"
    },
    {
      "inputs": [
        {
          "internalType": "uint256",
          "name": "",
          "type": "uint256"
        }
      ],
      "name": "certificates",
      "outputs": [
        {
          "internalType": "string",
          "name": "web2CourseId",
          "type": "string"
        },
        {
          "internalType": "address",
          "name": "student",
          "type": "address"
        },
        {
          "internalType": "uint256",
          "name": "timestamp",
          "type": "uint256"
        },
        {
          "internalType": "string",
          "name": "metadataURI",
          "type": "string"
        }
      ],
      "stateMutability": "view",
      "type": "function"
    },
    {
      "inputs": [
        {
          "internalType": "uint256",
          "name": "tokenId",
          "type": "uint256"
        }
      ],
      "name": "getApproved",
      "outputs": [
        {
          "internalType": "address",
          "name": "",
          "type": "address"
        }
      ],
      "stateMutability": "view",
      "type": "function"
    },
    {
      "inputs": [
        {
          "internalType": "bytes32",
          "name": "role",
          "type": "bytes32"
        }
      ],
      "name": "getRoleAdmin",
      "outputs": [
        {
          "internalType": "bytes32",
          "name": "",
          "type": "bytes32"
        }
      ],
      "stateMutability": "view",
      "type": "function"
    },
    {
      "inputs": [
        {
          "internalType": "bytes32",
          "name": "role",
          "type": "bytes32"
        },
        {
          "internalType": "address",
          "name": "account",
          "type": "address"
        }
      ],
      "name": "grantRole",
      "outputs": [],
      "stateMutability": "nonpayable",
      "type": "function"
    },
    {
      "inputs": [
        {
          "internalType": "bytes32",
          "name": "role",
          "type": "bytes32"
        },
        {
          "internalType": "address",
          "name": "account",
          "type": "address"
        }
      ],
      "name": "hasRole",
      "outputs": [
        {
          "internalType": "bool",
          "name": "",
          "type": "bool"
        }
      ],
      "stateMutability": "view",
      "type": "function"
    },
    {
      "inputs": [
        {
          "internalType": "address",
          "name": "owner",
          "type": "address"
        },
        {
          "internalType": "address",
          "name": "operator",
          "type": "address"
        }
      ],
      "name": "isApprovedForAll",
      "outputs": [
        {
          "internalType": "bool",
          "name": "",
          "type": "bool"
        }
      ],
      "stateMutability": "view",
      "type": "function"
    },
    {
      "inputs": [],
      "name": "name",
      "outputs": [
        {
          "internalType": "string",
          "name": "",
          "type": "string"
        }
      ],
      "stateMutability": "view",
      "type": "function"
    },
    {
      "inputs": [
        {
          "internalType": "uint256",
          "name": "tokenId",
          "type": "uint256"
        }
      ],
      "name": "ownerOf",
      "outputs": [
        {
          "internalType": "address",
          "name": "",
          "type": "address"
        }
      ],
      "stateMutability": "view",
      "type": "function"
    },
    {
      "inputs": [
        {
          "internalType": "bytes32",
          "name": "role",
          "type": "bytes32"
        },
        {
          "internalType": "address",
          "name": "account",
          "type": "address"
        }
      ],
      "name": "renounceRole",
      "outputs": [],
      "stateMutability": "nonpayable",
      "type": "function"
    },
    {
      "inputs": [
        {
          "internalType": "bytes32",
          "name": "role",
          "type": "bytes32"
        },
        {
          "internalType": "address",
          "name": "account",
          "type": "address"
        }
      ],
      "name": "revokeRole",
      "outputs": [],
      "stateMutability": "nonpayable",
      "type": "function"
    },
    {
      "inputs": [
        {
          "internalType": "address",
          "name": "from",
          "type": "address"
        },
        {
          "internalType": "address",
          "name": "to",
          "type": "address"
        },
        {
          "internalType": "uint256",
          "name": "tokenId",
          "type": "uint256"
        }
      ],
      "name": "safeTransferFrom",
      "outputs": [],
      "stateMutability": "nonpayable",
      "type": "function"
    },
    {
      "inputs": [
        {
          "internalType": "address",
          "name": "from",
          "type": "address"
        },
        {
          "internalType": "address",
          "name": "to",
          "type": "address"
        },
        {
          "internalType": "uint256",
          "name": "tokenId",
          "type": "uint256"
        },
        {
          "internalType": "bytes",
          "name": "data",
          "type": "bytes"
        }
      ],
      "name": "safeTransferFrom",
      "outputs": [],
      "stateMutability": "nonpayable",
      "type": "function"
    },
    {
      "inputs": [
        {
          "internalType": "address",
          "name": "operator",
          "type": "address"
        },
        {
          "internalType": "bool",
          "name": "approved",
          "type": "bool"
        }
      ],
      "name": "setApprovalForAll",
      "outputs": [],
      "stateMutability": "nonpayable",
      "type": "function"
    },
    {
      "inputs": [
        {
          "internalType": "string",
          "name": "",
          "type": "string"
        },
        {
          "internalType": "address",
          "name": "",
          "type": "address"
        },
        {
          "internalType": "uint256",
          "name": "",
          "type": "uint256"
        }
      ],
      "name": "studentCertificates",
      "outputs": [
        {
          "internalType": "uint256",
          "name": "",
          "type": "uint256"
        }
      ],
      "stateMutability": "view",
      "type": "function"
    },
    {
      "inputs": [],
      "name": "symbol",
      "outputs": [
        {
          "internalType": "string",
          "name": "",
          "type": "string"
        }
      ],
      "stateMutability": "view",
      "type": "function"
    },
    {
      "inputs": [
        {
          "internalType": "address",
          "name": "from",
          "type": "address"
        },
        {
          "internalType": "address",
          "name": "to",
          "type": "address"
        },
        {
          "internalType": "uint256",
          "name": "tokenId",
          "type": "uint256"
        }
      ],
      "name": "transferFrom",
      "outputs": [],
      "stateMutability": "nonpayable",
      "type": "function"
    },
    {
      "inputs": [
        {
          "internalType": "address",
          "name": "student",
          "type": "address"
        },
        {
          "internalType": "string",
          "name": "web2CourseId",
          "type": "string"
        },
        {
          "internalType": "string",
          "name": "metadataURI",
          "type": "string"
        }
      ],
      "name": "mintCertificate",
      "outputs": [
        {
          "internalType": "uint256",
          "name": "",
          "type": "uint256"
        }
      ],
      "stateMutability": "nonpayable",
      "type": "function"
    },
    {
      "inputs": [
        {
          "internalType": "uint256",
          "name": "tokenId",
          "type": "uint256"
        }
      ],
      "name": "tokenURI",
      "outputs": [
        {
          "internalType": "string",
          "name": "",
          "type": "string"
        }
      ],
      "stateMutability": "view",
      "type": "function"
    },
    {
      "inputs": [
        {
          "internalType": "address",
          "name": "student",
          "type": "address"
        },
        {
          "internalType": "string",
          "name": "web2CourseId",
          "type": "string"
        }
      ],
      "name": "hasCertificate",
      "outputs": [
        {
          "internalType": "bool",
          "name": "",
          "type": "bool"
        }
      ],
      "stateMutability": "view",
      "type": "function"
    },
    {
      "inputs": [
        {
          "internalType": "address",
          "name": "student",
          "type": "address"
        },
        {
          "internalType": "string",
          "name": "web2CourseId",
          "type": "string"
        }
      ],
      "name": "getStudentCertificates",
      "outputs": [
        {
          "internalType": "uint256[]",
          "name": "",
          "type": "uint256[]"
        }
      ],
      "stateMutability": "view",
      "type": "function"
    },
    {
      "inputs": [
        {
          "internalType": "bytes4",
          "name": "interfaceId",
          "type": "bytes4"
        }
      ],
      "name": "supportsInterface",
      "outputs": [
        {
          "internalType": "bool",
          "name": "",
          "type": "bool"
        }
      ],
      "stateMutability": "view",
      "type": "function"
    }
  ],
  "bytecode": "0x60806040523480156200001157600080fd5b506040518060400160405280601981526020017f596944656e6720436f75727365204365727469666963617465000000000000008152506040518060400160405280600481526020017f594443430000000000000000000000000000000000000000000000000000000081525081600090816200008f9190620004fb565b508060019081620000a19190620004fb565b505050620000c360006001023362000104640100000000026401000000009004565b620000fe7f9f2df0fed2c77648de5860a4cc508cd0818c85b8b8a1ab4ceeef8d981c8956a63362000104640100000000026401000000009004565b620005e2565b6200011f828262000208640100000000026401000000009004565b620002045760016006600084815260200190815260200160002060000160008373ffffffffffffffffffffffffffffffffffffffff1673ffffffffffffffffffffffffffffffffffffffff16815260200190815260200160002060006101000a81548160ff021916908315150217905550620001a962000273640100000000026401000000009004565b73ffffffffffffffffffffffffffffffffffffffff168173ffffffffffffffffffffffffffffffffffffffff16837f2f8788117e7eff1d82e926ec794901d17c78024a50270940304540a733656f0d60405160405180910390a45b5050565b60006006600084815260200190815260200160002060000160008373ffffffffffffffffffffffffffffffffffffffff1673ffffffffffffffffffffffffffffffffffffffff16815260200190815260200160002060009054906101000a900460ff16905092915050565b600033905090565b600081519050919050565b7f4e487b7100000000000000000000000000000000000000000000000000000000600052604160045260246000fd5b7f4e487b7100000000000000000000000000000000000000000000000000000000600052602260045260246000fd5b60006002820490506001821680620002fd57607f821691505b602082108103620003135762000312620002b5565b5b50919050565b60008190508160005260206000209050919050565b60006020601f8301049050919050565b60008160020a8302905092915050565b600060088302620003807fffffffffffffffffffffffffffffffffffffffffffffffffffffffffffffffff826200033e565b6200038c86836200033e565b95508019841693508086168417925050509392505050565b6000819050919050565b6000819050919050565b6000620003d9620003d3620003cd84620003a4565b620003ae565b620003a4565b9050919050565b6000819050919050565b620003f583620003b8565b6200040d6200040482620003e0565b8484546200034e565b825550505050565b600090565b6200042462000415565b62000431818484620003ea565b505050565b5b8181101562000459576200044d6000826200041a565b60018101905062000437565b5050565b601f821115620004a857620004728162000319565b6200047d846200032e565b810160208510156200048d578190505b620004a56200049c856200032e565b83018262000436565b50505b505050565b60008160020a8304905092915050565b6000620004d060001984600802620004ad565b1980831691505092915050565b6000620004eb8383620004bd565b9150826002028217905092915050565b62000506826200027b565b67ffffffffffffffff81111562000522576200052162000286565b5b6200052e8254620002e4565b6200053b8282856200045d565b600060209050601f8311600181146200057357600084156200055e578287015190505b6200056a8582620004dd565b865550620005da565b601f198416620005838662000319565b60005b82811015620005ad5784890151825560018201915060208501945060208101905062000586565b86831015620005cd5784890151620005c9601f891682620004bd565b8355505b6001600288020188555050505b505050505050565b613bee80620005f26000396000f3fe608060405234801561001057600080fd5b5060043610610190576000357c010000000000000000000000000000000000000000000000000000000090048063663b3e22116100fb578063a22cb465116100b4578063d33f11651161008e578063d33f1165146104c6578063d5391393146104f6578063d547741f14610514578063e985e9c51461053057610190565b8063a22cb4651461045e578063b88d4fde1461047a578063c87b56dd1461049657610190565b8063663b3e221461035f5780636b55243d1461039257806370a08231146103c257806391d14854146103f257806395d89b4114610422578063a217fddf1461044057610190565b80632f2ff15d1161014d5780632f2ff15d1461027b57806336568abe146102975780633998b6fe146102b35780633c433ebe146102e357806342842e0e146103135780636352211e1461032f57610190565b806301ffc9a71461019557806306fdde03146101c5578063081812fc146101e3578063095ea7b31461021357806323b872dd1461022f578063248a9ca31461024b575b600080fd5b6101af60048036038101906101aa9190612506565b610560565b6040516101bc919061254e565b60405180910390f35b6101cd610572565b6040516101da91906125f9565b60405180910390f35b6101fd60048036038101906101f89190612651565b610604565b60405161020a91906126bf565b60405180910390f35b61022d60048036038101906102289190612706565b61064a565b005b61024960048036038101906102449190612746565b610761565b005b610265600480360381019061026091906127cf565b6107c1565b604051610272919061280b565b60405180910390f35b61029560048036038101906102909190612826565b6107e1565b005b6102b160048036038101906102ac9190612826565b610802565b005b6102cd60048036038101906102c8919061299b565b610885565b6040516102da9190612ab5565b60405180910390f35b6102fd60048036038101906102f8919061299b565b610939565b60405161030a919061254e565b60405180910390f35b61032d60048036038101906103289190612746565b6109a4565b005b61034960048036038101906103449190612651565b6109c4565b60405161035691906126bf565b60405180910390f35b61037960048036038101906103749190612651565b610a4a565b6040516103899493929190612ae6565b60405180910390f35b6103ac60048036038101906103a79190612b39565b610baa565b6040516103b99190612bc4565b60405180910390f35b6103dc60048036038101906103d79190612bdf565b610e0e565b6040516103e99190612bc4565b60405180910390f35b61040c60048036038101906104079190612826565b610ec5565b604051610419919061254e565b60405180910390f35b61042a610f30565b60405161043791906125f9565b60405180910390f35b610448610fc2565b604051610455919061280b565b60405180910390f35b61047860048036038101906104739190612c38565b610fca565b005b610494600480360381019061048f9190612d19565b610fe0565b005b6104b060048036038101906104ab9190612651565b611042565b6040516104bd91906125f9565b60405180910390f35b6104e060048036038101906104db9190612d9c565b611132565b6040516104ed9190612bc4565b60405180910390f35b6104fe611186565b60405161050b919061280b565b60405180910390f35b61052e60048036038101906105299190612826565b6111aa565b005b61054a60048036038101906105459190612e0b565b6111cb565b604051610557919061254e565b60405180910390f35b600061056b8261125f565b9050919050565b60606000805461058190612e7a565b80601f01602080910402602001604051908101604052809291908181526020018280546105ad90612e7a565b80156105fa5780601f106105cf576101008083540402835291602001916105fa565b820191906000526020600020905b8154815290600101906020018083116105dd57829003601f168201915b5050505050905090565b600061060f826112d9565b6004600083815260200190815260200160002060009054906101000a900473ffffffffffffffffffffffffffffffffffffffff169050919050565b6000610655826109c4565b90508073ffffffffffffffffffffffffffffffffffffffff168373ffffffffffffffffffffffffffffffffffffffff16036106c5576040517f08c379a00000000000000000000000000000000000000000000000000000000081526004016106bc90612f1d565b60405180910390fd5b8073ffffffffffffffffffffffffffffffffffffffff166106e4611324565b73ffffffffffffffffffffffffffffffffffffffff16148061071357506107128161070d611324565b6111cb565b5b610752576040517f08c379a000000000000000000000000000000000000000000000000000000000815260040161074990612faf565b60405180910390fd5b61075c838361132c565b505050565b61077261076c611324565b826113e5565b6107b1576040517f08c379a00000000000000000000000000000000000000000000000000000000081526004016107a890613041565b60405180910390fd5b6107bc83838361147a565b505050565b600060066000838152602001908152602001600020600101549050919050565b6107ea826107c1565b6107f381611773565b6107fd8383611787565b505050565b61080a611324565b73ffffffffffffffffffffffffffffffffffffffff168173ffffffffffffffffffffffffffffffffffffffff1614610877576040517f08c379a000000000000000000000000000000000000000000000000000000000815260040161086e906130d3565b60405180910390fd5b6108818282611868565b5050565b6060600982604051610897919061312f565b908152602001604051809103902060008473ffffffffffffffffffffffffffffffffffffffff1673ffffffffffffffffffffffffffffffffffffffff16815260200190815260200160002080548060200260200160405190810160405280929190818152602001828054801561092c57602002820191906000526020600020905b815481526020019060010190808311610918575b5050505050905092915050565b60008060098360405161094c919061312f565b908152602001604051809103902060008573ffffffffffffffffffffffffffffffffffffffff1673ffffffffffffffffffffffffffffffffffffffff1681526020019081526020016000208054905011905092915050565b6109bf83838360405180602001604052806000815250610fe0565b505050565b6000806109d08361194a565b9050600073ffffffffffffffffffffffffffffffffffffffff168173ffffffffffffffffffffffffffffffffffffffff1603610a41576040517f08c379a0000000000000000000000000000000000000000000000000000000008152600401610a3890613192565b60405180910390fd5b80915050919050565b6008602052806000526040600020600091509050806000018054610a6d90612e7a565b80601f0160208091040260200160405190810160405280929190818152602001828054610a9990612e7a565b8015610ae65780601f10610abb57610100808354040283529160200191610ae6565b820191906000526020600020905b815481529060010190602001808311610ac957829003601f168201915b5050505050908060010160009054906101000a900473ffffffffffffffffffffffffffffffffffffffff1690806002015490806003018054610b2790612e7a565b80601f0160208091040260200160405190810160405280929190818152602001828054610b5390612e7a565b8015610ba05780601f10610b7557610100808354040283529160200191610ba0565b820191906000526020600020905b815481529060010190602001808311610b8357829003601f168201915b5050505050905084565b60007f9f2df0fed2c77648de5860a4cc508cd0818c85b8b8a1ab4ceeef8d981c8956a6610bd681611773565b600073ffffffffffffffffffffffffffffffffffffffff168573ffffffffffffffffffffffffffffffffffffffff1603610c45576040517f08c379a0000000000000000000000000000000000000000000000000000000008152600401610c3c906131fe565b60405180910390fd5b610c4f6007611987565b6000610c5b600761199d565b9050610c6786826119ab565b60405180608001604052808681526020018773ffffffffffffffffffffffffffffffffffffffff16815260200142815260200185815250600860008381526020019081526020016000206000820151816000019081610cc691906133d0565b5060208201518160010160006101000a81548173ffffffffffffffffffffffffffffffffffffffff021916908373ffffffffffffffffffffffffffffffffffffffff160217905550604082015181600201556060820151816003019081610d2d91906133d0565b50905050600985604051610d41919061312f565b908152602001604051809103902060008773ffffffffffffffffffffffffffffffffffffffff1673ffffffffffffffffffffffffffffffffffffffff1681526020019081526020016000208190806001815401808255809150506001900390600052602060002001600090919091909150558573ffffffffffffffffffffffffffffffffffffffff16817f3a8294eea84a809a4e4f058c92870183809c74c7e705132fcbdc5e2b0e51d9f187604051610dfa91906125f9565b60405180910390a380925050509392505050565b60008073ffffffffffffffffffffffffffffffffffffffff168273ffffffffffffffffffffffffffffffffffffffff1603610e7e576040517f08c379a0000000000000000000000000000000000000000000000000000000008152600401610e7590613514565b60405180910390fd5b600360008373ffffffffffffffffffffffffffffffffffffffff1673ffffffffffffffffffffffffffffffffffffffff168152602001908152602001600020549050919050565b60006006600084815260200190815260200160002060000160008373ffffffffffffffffffffffffffffffffffffffff1673ffffffffffffffffffffffffffffffffffffffff16815260200190815260200160002060009054906101000a900460ff16905092915050565b606060018054610f3f90612e7a565b80601f0160208091040260200160405190810160405280929190818152602001828054610f6b90612e7a565b8015610fb85780601f10610f8d57610100808354040283529160200191610fb8565b820191906000526020600020905b815481529060010190602001808311610f9b57829003601f168201915b5050505050905090565b600060010281565b610fdc610fd5611324565b83836119c9565b5050565b610ff1610feb611324565b836113e5565b611030576040517f08c379a000000000000000000000000000000000000000000000000000000000815260040161102790613041565b60405180910390fd5b61103c84848484611b35565b50505050565b606061104d82611b91565b61108c576040517f08c379a000000000000000000000000000000000000000000000000000000000815260040161108390613580565b60405180910390fd5b6008600083815260200190815260200160002060030180546110ad90612e7a565b80601f01602080910402602001604051908101604052809291908181526020018280546110d990612e7a565b80156111265780601f106110fb57610100808354040283529160200191611126565b820191906000526020600020905b81548152906001019060200180831161110957829003601f168201915b50505050509050919050565b600983805160208101820180518482526020830160208501208183528095505050505050602052816000526040600020818154811061117057600080fd5b9060005260206000200160009250925050505481565b7f9f2df0fed2c77648de5860a4cc508cd0818c85b8b8a1ab4ceeef8d981c8956a681565b6111b3826107c1565b6111bc81611773565b6111c68383611868565b505050565b6000600560008473ffffffffffffffffffffffffffffffffffffffff1673ffffffffffffffffffffffffffffffffffffffff16815260200190815260200160002060008373ffffffffffffffffffffffffffffffffffffffff1673ffffffffffffffffffffffffffffffffffffffff16815260200190815260200160002060009054906101000a900460ff16905092915050565b60007f7965db0b000000000000000000000000000000000000000000000000000000007bffffffffffffffffffffffffffffffffffffffffffffffffffffffff1916827bffffffffffffffffffffffffffffffffffffffffffffffffffffffff191614806112d257506112d182611bd2565b5b9050919050565b6112e281611b91565b611321576040517f08c379a000000000000000000000000000000000000000000000000000000000815260040161131890613192565b60405180910390fd5b50565b600033905090565b816004600083815260200190815260200160002060006101000a81548173ffffffffffffffffffffffffffffffffffffffff021916908373ffffffffffffffffffffffffffffffffffffffff160217905550808273ffffffffffffffffffffffffffffffffffffffff1661139f836109c4565b73ffffffffffffffffffffffffffffffffffffffff167f8c5be1e5ebec7d5bd14f71427d1e84f3dd0314c0f7b2291e5b200ac8c7c3b92560405160405180910390a45050565b6000806113f1836109c4565b90508073ffffffffffffffffffffffffffffffffffffffff168473ffffffffffffffffffffffffffffffffffffffff161480611433575061143281856111cb565b5b8061147157508373ffffffffffffffffffffffffffffffffffffffff1661145984610604565b73ffffffffffffffffffffffffffffffffffffffff16145b91505092915050565b8273ffffffffffffffffffffffffffffffffffffffff1661149a826109c4565b73ffffffffffffffffffffffffffffffffffffffff16146114f0576040517f08c379a00000000000000000000000000000000000000000000000000000000081526004016114e790613612565b60405180910390fd5b600073ffffffffffffffffffffffffffffffffffffffff168273ffffffffffffffffffffffffffffffffffffffff160361155f576040517f08c379a0000000000000000000000000000000000000000000000000000000008152600401611556906136a4565b60405180910390fd5b61156c8383836001611cb4565b8273ffffffffffffffffffffffffffffffffffffffff1661158c826109c4565b73ffffffffffffffffffffffffffffffffffffffff16146115e2576040517f08c379a00000000000000000000000000000000000000000000000000000000081526004016115d990613612565b60405180910390fd5b6004600082815260200190815260200160002060006101000a81549073ffffffffffffffffffffffffffffffffffffffff02191690556001600360008573ffffffffffffffffffffffffffffffffffffffff1673ffffffffffffffffffffffffffffffffffffffff168152602001908152602001600020600082825403925050819055506001600360008473ffffffffffffffffffffffffffffffffffffffff1673ffffffffffffffffffffffffffffffffffffffff16815260200190815260200160002060008282540192505081905550816002600083815260200190815260200160002060006101000a81548173ffffffffffffffffffffffffffffffffffffffff021916908373ffffffffffffffffffffffffffffffffffffffff160217905550808273ffffffffffffffffffffffffffffffffffffffff168473ffffffffffffffffffffffffffffffffffffffff167fddf252ad1be2c89b69c2b068fc378daa952ba7f163c4a11628f55a4df523b3ef60405160405180910390a461176e8383836001611cba565b505050565b6117848161177f611324565b611cc0565b50565b6117918282610ec5565b6118645760016006600084815260200190815260200160002060000160008373ffffffffffffffffffffffffffffffffffffffff1673ffffffffffffffffffffffffffffffffffffffff16815260200190815260200160002060006101000a81548160ff021916908315150217905550611809611324565b73ffffffffffffffffffffffffffffffffffffffff168173ffffffffffffffffffffffffffffffffffffffff16837f2f8788117e7eff1d82e926ec794901d17c78024a50270940304540a733656f0d60405160405180910390a45b5050565b6118728282610ec5565b156119465760006006600084815260200190815260200160002060000160008373ffffffffffffffffffffffffffffffffffffffff1673ffffffffffffffffffffffffffffffffffffffff16815260200190815260200160002060006101000a81548160ff0219169083151502179055506118eb611324565b73ffffffffffffffffffffffffffffffffffffffff168173ffffffffffffffffffffffffffffffffffffffff16837ff6391f5c32d9c69d2a47ea670b442974b53935d1edc7fd64eb21e047a839171b60405160405180910390a45b5050565b60006002600083815260200190815260200160002060009054906101000a900473ffffffffffffffffffffffffffffffffffffffff169050919050565b6001816000016000828254019250508190555050565b600081600001549050919050565b6119c5828260405180602001604052806000815250611d46565b5050565b8173ffffffffffffffffffffffffffffffffffffffff168373ffffffffffffffffffffffffffffffffffffffff1603611a37576040517f08c379a0000000000000000000000000000000000000000000000000000000008152600401611a2e90613710565b60405180910390fd5b80600560008573ffffffffffffffffffffffffffffffffffffffff1673ffffffffffffffffffffffffffffffffffffffff16815260200190815260200160002060008473ffffffffffffffffffffffffffffffffffffffff1673ffffffffffffffffffffffffffffffffffffffff16815260200190815260200160002060006101000a81548160ff0219169083151502179055508173ffffffffffffffffffffffffffffffffffffffff168373ffffffffffffffffffffffffffffffffffffffff167f17307eab39ab6107e8899845ad3d59bd9653f200f220920489ca2b5937696c3183604051611b28919061254e565b60405180910390a3505050565b611b4084848461147a565b611b4c84848484611da1565b611b8b576040517f08c379a0000000000000000000000000000000000000000000000000000000008152600401611b82906137a2565b60405180910390fd5b50505050565b60008073ffffffffffffffffffffffffffffffffffffffff16611bb38361194a565b73ffffffffffffffffffffffffffffffffffffffff1614159050919050565b60007f80ac58cd000000000000000000000000000000000000000000000000000000007bffffffffffffffffffffffffffffffffffffffffffffffffffffffff1916827bffffffffffffffffffffffffffffffffffffffffffffffffffffffff19161480611c9d57507f5b5e139f000000000000000000000000000000000000000000000000000000007bffffffffffffffffffffffffffffffffffffffffffffffffffffffff1916827bffffffffffffffffffffffffffffffffffffffffffffffffffffffff1916145b80611cad5750611cac82611f60565b5b9050919050565b50505050565b50505050565b611cca8282610ec5565b611d4257611cd781611fca565b611ce683600190046020611ff7565b604051602001611cf792919061385a565b6040516020818303038152906040526040517f08c379a0000000000000000000000000000000000000000000000000000000008152600401611d3991906125f9565b60405180910390fd5b5050565b611d50838361225a565b611d5d6000848484611da1565b611d9c576040517f08c379a0000000000000000000000000000000000000000000000000000000008152600401611d93906137a2565b60405180910390fd5b505050565b6000611dc28473ffffffffffffffffffffffffffffffffffffffff16612477565b15611f53578373ffffffffffffffffffffffffffffffffffffffff1663150b7a02611deb611324565b8786866040518563ffffffff167c0100000000000000000000000000000000000000000000000000000000028152600401611e2994939291906138e9565b6020604051808303816000875af1925050508015611e6557506040513d601f19601f82011682018060405250810190611e62919061394a565b60015b611ee7573d8060008114611e95576040519150601f19603f3d011682016040523d82523d6000602084013e611e9a565b606091505b506000815103611edf576040517f08c379a0000000000000000000000000000000000000000000000000000000008152600401611ed6906137a2565b60405180910390fd5b805181602001fd5b63150b7a027c0100000000000000000000000000000000000000000000000000000000027bffffffffffffffffffffffffffffffffffffffffffffffffffffffff1916817bffffffffffffffffffffffffffffffffffffffffffffffffffffffff191614915050611f58565b600190505b949350505050565b60007f01ffc9a7000000000000000000000000000000000000000000000000000000007bffffffffffffffffffffffffffffffffffffffffffffffffffffffff1916827bffffffffffffffffffffffffffffffffffffffffffffffffffffffff1916149050919050565b6060611ff08273ffffffffffffffffffffffffffffffffffffffff16601460ff16611ff7565b9050919050565b60606000600283600261200a91906139a6565b61201491906139e8565b67ffffffffffffffff81111561202d5761202c612870565b5b6040519080825280601f01601f19166020018201604052801561205f5781602001600182028036833780820191505090505b5090507f30000000000000000000000000000000000000000000000000000000000000008160008151811061209757612096613a1c565b5b60200101907effffffffffffffffffffffffffffffffffffffffffffffffffffffffffffff1916908160001a9053507f7800000000000000000000000000000000000000000000000000000000000000816001815181106120fb576120fa613a1c565b5b60200101907effffffffffffffffffffffffffffffffffffffffffffffffffffffffffffff1916908160001a9053506000600184600261213b91906139a6565b61214591906139e8565b90505b600181111561220c577f3031323334353637383961626364656600000000000000000000000000000000600f86166010811061218757612186613a1c565b5b1a7f0100000000000000000000000000000000000000000000000000000000000000028282815181106121bd576121bc613a1c565b5b60200101907effffffffffffffffffffffffffffffffffffffffffffffffffffffffffffff1916908160001a905350600485908060020a820491505094508061220590613a4b565b9050612148565b5060008414612250576040517f08c379a000000000000000000000000000000000000000000000000000000000815260040161224790613ac0565b60405180910390fd5b8091505092915050565b600073ffffffffffffffffffffffffffffffffffffffff168273ffffffffffffffffffffffffffffffffffffffff16036122c9576040517f08c379a00000000000000000000000000000000000000000000000000000000081526004016122c090613b2c565b60405180910390fd5b6122d281611b91565b15612312576040517f08c379a000000000000000000000000000000000000000000000000000000000815260040161230990613b98565b60405180910390fd5b612320600083836001611cb4565b61232981611b91565b15612369576040517f08c379a000000000000000000000000000000000000000000000000000000000815260040161236090613b98565b60405180910390fd5b6001600360008473ffffffffffffffffffffffffffffffffffffffff1673ffffffffffffffffffffffffffffffffffffffff16815260200190815260200160002060008282540192505081905550816002600083815260200190815260200160002060006101000a81548173ffffffffffffffffffffffffffffffffffffffff021916908373ffffffffffffffffffffffffffffffffffffffff160217905550808273ffffffffffffffffffffffffffffffffffffffff16600073ffffffffffffffffffffffffffffffffffffffff167fddf252ad1be2c89b69c2b068fc378daa952ba7f163c4a11628f55a4df523b3ef60405160405180910390a4612473600083836001611cba565b5050565b6000808273ffffffffffffffffffffffffffffffffffffffff163b119050919050565b6000604051905090565b600080fd5b600080fd5b60007fffffffff0000000000000000000000000000000000000000000000000000000082169050919050565b6124e3816124ae565b81146124ee57600080fd5b50565b600081359050612500816124da565b92915050565b60006020828403121561251c5761251b6124a4565b5b600061252a848285016124f1565b91505092915050565b60008115159050919050565b61254881612533565b82525050565b6000602082019050612563600083018461253f565b92915050565b600081519050919050565b600082825260208201905092915050565b60005b838110156125a3578082015181840152602081019050612588565b60008484015250505050565b6000601f19601f8301169050919050565b60006125cb82612569565b6125d58185612574565b93506125e5818560208601612585565b6125ee816125af565b840191505092915050565b6000602082019050818103600083015261261381846125c0565b905092915050565b6000819050919050565b61262e8161261b565b811461263957600080fd5b50565b60008135905061264b81612625565b92915050565b600060208284031215612667576126666124a4565b5b60006126758482850161263c565b91505092915050565b600073ffffffffffffffffffffffffffffffffffffffff82169050919050565b60006126a98261267e565b9050919050565b6126b98161269e565b82525050565b60006020820190506126d460008301846126b0565b92915050565b6126e38161269e565b81146126ee57600080fd5b50565b600081359050612700816126da565b92915050565b6000806040838503121561271d5761271c6124a4565b5b600061272b858286016126f1565b925050602061273c8582860161263c565b9150509250929050565b60008060006060848603121561275f5761275e6124a4565b5b600061276d868287016126f1565b935050602061277e868287016126f1565b925050604061278f8682870161263c565b9150509250925092565b6000819050919050565b6127ac81612799565b81146127b757600080fd5b50565b6000813590506127c9816127a3565b92915050565b6000602082840312156127e5576127e46124a4565b5b60006127f3848285016127ba565b91505092915050565b61280581612799565b82525050565b600060208201905061282060008301846127fc565b92915050565b6000806040838503121561283d5761283c6124a4565b5b600061284b858286016127ba565b925050602061285c858286016126f1565b9150509250929050565b600080fd5b600080fd5b7f4e487b7100000000000000000000000000000000000000000000000000000000600052604160045260246000fd5b6128a8826125af565b810181811067ffffffffffffffff821117156128c7576128c6612870565b5b80604052505050565b60006128da61249a565b90506128e6828261289f565b919050565b600067ffffffffffffffff82111561290657612905612870565b5b61290f826125af565b9050602081019050919050565b82818337600083830152505050565b600061293e612939846128eb565b6128d0565b90508281526020810184848401111561295a5761295961286b565b5b61296584828561291c565b509392505050565b600082601f83011261298257612981612866565b5b813561299284826020860161292b565b91505092915050565b600080604083850312156129b2576129b16124a4565b5b60006129c0858286016126f1565b925050602083013567ffffffffffffffff8111156129e1576129e06124a9565b5b6129ed8582860161296d565b9150509250929050565b600081519050919050565b600082825260208201905092915050565b6000819050602082019050919050565b612a2c8161261b565b82525050565b6000612a3e8383612a23565b60208301905092915050565b6000602082019050919050565b6000612a62826129f7565b612a6c8185612a02565b9350612a7783612a13565b8060005b83811015612aa8578151612a8f8882612a32565b9750612a9a83612a4a565b925050600181019050612a7b565b5085935050505092915050565b60006020820190508181036000830152612acf8184612a57565b905092915050565b612ae08161261b565b82525050565b60006080820190508181036000830152612b0081876125c0565b9050612b0f60208301866126b0565b612b1c6040830185612ad7565b8181036060830152612b2e81846125c0565b905095945050505050565b600080600060608486031215612b5257612b516124a4565b5b6000612b60868287016126f1565b935050602084013567ffffffffffffffff811115612b8157612b806124a9565b5b612b8d8682870161296d565b925050604084013567ffffffffffffffff811115612bae57612bad6124a9565b5b612bba8682870161296d565b9150509250925092565b6000602082019050612bd96000830184612ad7565b92915050565b600060208284031215612bf557612bf46124a4565b5b6000612c03848285016126f1565b91505092915050565b612c1581612533565b8114612c2057600080fd5b50565b600081359050612c3281612c0c565b92915050565b60008060408385031215612c4f57612c4e6124a4565b5b6000612c5d858286016126f1565b9250506020612c6e85828601612c23565b9150509250929050565b600067ffffffffffffffff821115612c9357612c92612870565b5b612c9c826125af565b9050602081019050919050565b6000612cbc612cb784612c78565b6128d0565b905082815260208101848484011115612cd857612cd761286b565b5b612ce384828561291c565b509392505050565b600082601f830112612d0057612cff612866565b5b8135612d10848260208601612ca9565b91505092915050565b60008060008060808587031215612d3357612d326124a4565b5b6000612d41878288016126f1565b9450506020612d52878288016126f1565b9350506040612d638782880161263c565b925050606085013567ffffffffffffffff811115612d8457612d836124a9565b5b612d9087828801612ceb565b91505092959194509250565b600080600060608486031215612db557612db46124a4565b5b600084013567ffffffffffffffff811115612dd357612dd26124a9565b5b612ddf8682870161296d565b9350506020612df0868287016126f1565b9250506040612e018682870161263c565b9150509250925092565b60008060408385031215612e2257612e216124a4565b5b6000612e30858286016126f1565b9250506020612e41858286016126f1565b9150509250929050565b7f4e487b7100000000000000000000000000000000000000000000000000000000600052602260045260246000fd5b60006002820490506001821680612e9257607f821691505b602082108103612ea557612ea4612e4b565b5b50919050565b7f4552433732313a20617070726f76616c20746f2063757272656e74206f776e6560008201527f7200000000000000000000000000000000000000000000000000000000000000602082015250565b6000612f07602183612574565b9150612f1282612eab565b604082019050919050565b60006020820190508181036000830152612f3681612efa565b9050919050565b7f4552433732313a20617070726f76652063616c6c6572206973206e6f7420746f60008201527f6b656e206f776e6572206f7220617070726f76656420666f7220616c6c000000602082015250565b6000612f99603d83612574565b9150612fa482612f3d565b604082019050919050565b60006020820190508181036000830152612fc881612f8c565b9050919050565b7f4552433732313a2063616c6c6572206973206e6f7420746f6b656e206f776e6560008201527f72206f7220617070726f76656400000000000000000000000000000000000000602082015250565b600061302b602d83612574565b915061303682612fcf565b604082019050919050565b6000602082019050818103600083015261305a8161301e565b9050919050565b7f416363657373436f6e74726f6c3a2063616e206f6e6c792072656e6f756e636560008201527f20726f6c657320666f722073656c660000000000000000000000000000000000602082015250565b60006130bd602f83612574565b91506130c882613061565b604082019050919050565b600060208201905081810360008301526130ec816130b0565b9050919050565b600081905092915050565b600061310982612569565b61311381856130f3565b9350613123818560208601612585565b80840191505092915050565b600061313b82846130fe565b915081905092915050565b7f4552433732313a20696e76616c696420746f6b656e2049440000000000000000600082015250565b600061317c601883612574565b915061318782613146565b602082019050919050565b600060208201905081810360008301526131ab8161316f565b9050919050565b7f496e76616c69642073747564656e742061646472657373000000000000000000600082015250565b60006131e8601783612574565b91506131f3826131b2565b602082019050919050565b60006020820190508181036000830152613217816131db565b9050919050565b60008190508160005260206000209050919050565b60006020601f8301049050919050565b60008160020a8302905092915050565b6000600883026132837fffffffffffffffffffffffffffffffffffffffffffffffffffffffffffffffff82613243565b61328d8683613243565b95508019841693508086168417925050509392505050565b6000819050919050565b60006132ca6132c56132c08461261b565b6132a5565b61261b565b9050919050565b6000819050919050565b6132e4836132af565b6132f86132f0826132d1565b848454613253565b825550505050565b600090565b61330d613300565b6133188184846132db565b505050565b5b8181101561333c57613331600082613305565b60018101905061331e565b5050565b601f821115613381576133528161321e565b61335b84613233565b8101602085101561336a578190505b61337e61337685613233565b83018261331d565b50505b505050565b60008160020a8304905092915050565b60006133a760001984600802613386565b1980831691505092915050565b60006133c08383613396565b9150826002028217905092915050565b6133d982612569565b67ffffffffffffffff8111156133f2576133f1612870565b5b6133fc8254612e7a565b613407828285613340565b600060209050601f83116001811461343a5760008415613428578287015190505b61343285826133b4565b86555061349a565b601f1984166134488661321e565b60005b828110156134705784890151825560018201915060208501945060208101905061344b565b8683101561348d5784890151613489601f891682613396565b8355505b6001600288020188555050505b505050505050565b7f4552433732313a2061646472657373207a65726f206973206e6f74206120766160008201527f6c6964206f776e65720000000000000000000000000000000000000000000000602082015250565b60006134fe602983612574565b9150613509826134a2565b604082019050919050565b6000602082019050818103600083015261352d816134f1565b9050919050565b7f436572746966696361746520646f6573206e6f74206578697374000000000000600082015250565b600061356a601a83612574565b915061357582613534565b602082019050919050565b600060208201905081810360008301526135998161355d565b9050919050565b7f4552433732313a207472616e736665722066726f6d20696e636f72726563742060008201527f6f776e6572000000000000000000000000000000000000000000000000000000602082015250565b60006135fc602583612574565b9150613607826135a0565b604082019050919050565b6000602082019050818103600083015261362b816135ef565b9050919050565b7f4552433732313a207472616e7366657220746f20746865207a65726f2061646460008201527f7265737300000000000000000000000000000000000000000000000000000000602082015250565b600061368e602483612574565b915061369982613632565b604082019050919050565b600060208201905081810360008301526136bd81613681565b9050919050565b7f4552433732313a20617070726f766520746f2063616c6c657200000000000000600082015250565b60006136fa601983612574565b9150613705826136c4565b602082019050919050565b60006020820190508181036000830152613729816136ed565b9050919050565b7f4552433732313a207472616e7366657220746f206e6f6e20455243373231526560008201527f63656976657220696d706c656d656e7465720000000000000000000000000000602082015250565b600061378c603283612574565b915061379782613730565b604082019050919050565b600060208201905081810360008301526137bb8161377f565b9050919050565b7f416363657373436f6e74726f6c3a206163636f756e7420000000000000000000600082015250565b60006137f86017836130f3565b9150613803826137c2565b601782019050919050565b7f206973206d697373696e6720726f6c6520000000000000000000000000000000600082015250565b60006138446011836130f3565b915061384f8261380e565b601182019050919050565b6000613865826137eb565b915061387182856130fe565b915061387c82613837565b915061388882846130fe565b91508190509392505050565b600081519050919050565b600082825260208201905092915050565b60006138bb82613894565b6138c5818561389f565b93506138d5818560208601612585565b6138de816125af565b840191505092915050565b60006080820190506138fe60008301876126b0565b61390b60208301866126b0565b6139186040830185612ad7565b818103606083015261392a81846138b0565b905095945050505050565b600081519050613944816124da565b92915050565b6000602082840312156139605761395f6124a4565b5b600061396e84828501613935565b91505092915050565b7f4e487b7100000000000000000000000000000000000000000000000000000000600052601160045260246000fd5b60006139b18261261b565b91506139bc8361261b565b92508282026139ca8161261b565b915082820484148315176139e1576139e0613977565b5b5092915050565b60006139f38261261b565b91506139fe8361261b565b9250828201905080821115613a1657613a15613977565b5b92915050565b7f4e487b7100000000000000000000000000000000000000000000000000000000600052603260045260246000fd5b6000613a568261261b565b915060008203613a6957613a68613977565b5b600182039050919050565b7f537472696e67733a20686578206c656e67746820696e73756666696369656e74600082015250565b6000613aaa602083612574565b9150613ab582613a74565b602082019050919050565b60006020820190508181036000830152613ad981613a9d565b9050919050565b7f4552433732313a206d696e7420746f20746865207a65726f2061646472657373600082015250565b6000613b16602083612574565b9150613b2182613ae0565b602082019050919050565b60006020820190508181036000830152613b4581613b09565b9050919050565b7f4552433732313a20746f6b656e20616c7265616479206d696e74656400000000600082015250565b6000613b82601c83612574565b9150613b8d82613b4c565b602082019050919050565b60006020820190508181036000830152613bb181613b75565b905091905056fea26469706673582212206664bcfba0735678aaf9632abf95bbfe990d41ef97f41924adb398df638918ea64736f6c63430008140033",
  "immutableReferences": {},
  "source": "// SPDX-License-Identifier: MIT\npragma solidity ^0.8.0;\n\n//  OpenZeppelin \nimport \"@openzeppelin/contracts/token/ERC721/ERC721.sol\";\nimport \"@openzeppelin/contracts/access/AccessControl.sol\";\nimport \"@openzeppelin/contracts/utils/Counters.sol\";\nimport \"@openzeppelin/contracts/utils/Strings.sol\";\n\n/**\n * @title CourseCertificate\n * @dev NFT\n * ERC721\n */\ncontract CourseCertificate is ERC721, AccessControl {\n    using Counters for Counters.Counter;\n    using Strings for uint256;\n\n    // NFT IDID\n    Counters.Counter private _tokenIds;\n\n    // \n    bytes32 public constant MINTER_ROLE = keccak256(\"MINTER_ROLE\");\n\n    /**\n     * @dev \n     * @param web2CourseId Web2ID\n     * @param student \n     * @param timestamp \n     * @param metadataURI URI\n     */\n    struct CertificateData {\n        string web2CourseId; // Web2ID\n        address student; // \n        uint256 timestamp; // \n        string metadataURI; // URI\n    }\n\n    // tokenId => \n    mapping(uint256 => CertificateData) public certificates;\n\n    // courseId =>  => tokenId\n    // \n    mapping(string => mapping(address => uint256[])) public studentCertificates;\n\n    /**\n     * @dev \n     * @param tokenId ID\n     * @param web2CourseId Web2ID\n     * @param student \n     */\n    event CertificateMinted(\n        uint256 indexed tokenId,\n        string web2CourseId,\n        address indexed student\n    );\n\n    /**\n     * @dev NFT\n     * \n     */\n    constructor() ERC721(\"YiDeng Course Certificate\", \"YDCC\") {\n        // \n        _grantRole(DEFAULT_ADMIN_ROLE, msg.sender);\n        _grantRole(MINTER_ROLE, msg.sender);\n    }\n\n    /**\n     * @dev \n     * MINTER_ROLE\n     * @param student \n     * @param web2CourseId IDWeb2\n     * @param metadataURI URI\n     * @return uint256 ID\n     */\n    function mintCertificate(\n        address student,\n        string memory web2CourseId,\n        string memory metadataURI\n    ) external onlyRole(MINTER_ROLE) returns (uint256) {\n        require(student != address(0), \"Invalid student address\");\n\n        // tokenId\n        _tokenIds.increment();\n        uint256 newTokenId = _tokenIds.current();\n\n        // NFT\n        _safeMint(student, newTokenId);\n\n        // \n        certificates[newTokenId] = CertificateData({\n            web2CourseId: web2CourseId,\n            student: student,\n            timestamp: block.timestamp,\n            metadataURI: metadataURI\n        });\n\n        // \n        studentCertificates[web2CourseId][student].push(newTokenId);\n\n        emit CertificateMinted(newTokenId, web2CourseId, student);\n        return newTokenId;\n    }\n\n    /**\n     * @dev URI\n     * ERC721tokenURIURI\n     * @param tokenId ID\n     * @return string URI\n     */\n    function tokenURI(\n        uint256 tokenId\n    ) public view override returns (string memory) {\n        require(_exists(tokenId), \"Certificate does not exist\");\n        return certificates[tokenId].metadataURI;\n    }\n\n    /**\n     * @dev \n     * @param student \n     * @param web2CourseId ID\n     * @return bool true\n     */\n    function hasCertificate(\n        address student,\n        string memory web2CourseId\n    ) public view returns (bool) {\n        return studentCertificates[web2CourseId][student].length > 0;\n    }\n\n    /**\n     * @dev ID\n     * @param student \n     * @param web2CourseId ID\n     * @return uint256[] ID\n     */\n    function getStudentCertificates(\n        address student,\n        string memory web2CourseId\n    ) public view returns (uint256[] memory) {\n        return studentCertificates[web2CourseId][student];\n    }\n\n    /**\n     * @dev  supportsInterface \n     * ERC721AccessControl\n     * @param interfaceId ID\n     * @return bool true\n     */\n    function supportsInterface(\n        bytes4 interfaceId\n    ) public view override(ERC721, AccessControl) returns (bool) {\n        return super.supportsInterface(interfaceId);\n    }\n}\n",
  "sourcePath": "/Users/xiaoai/git/web3-university-contract/contracts/CourseCertificate.sol",
  "compiler": {
    "name": "solc",
    "version": "0.8.20+commit.a1b79de6.Emscripten.clang"
  },
  "schemaVersion": "3.4.16",
  "updatedAt": "2025-04-13T01:47:13.502Z",
  "devdoc": {
    "details": "NFT ERC721",
    "events": {
      "Approval(address,address,uint256)": {
        "details": "Emitted when `owner` enables `approved` to manage the `tokenId` token."
      },
      "ApprovalForAll(address,address,bool)": {
        "details": "Emitted when `owner` enables or disables (`approved`) `operator` to manage all of its assets."
      },
      "CertificateMinted(uint256,string,address)": {
        "details": "",
        "params": {
          "student": "",
          "tokenId": "ID",
          "web2CourseId": "Web2ID"
        }
      },
      "RoleAdminChanged(bytes32,bytes32,bytes32)": {
        "details": "Emitted when `newAdminRole` is set as ``role``'s admin role, replacing `previousAdminRole` `DEFAULT_ADMIN_ROLE` is the starting admin for all roles, despite {RoleAdminChanged} not being emitted signaling this. _Available since v3.1._"
      },
      "RoleGranted(bytes32,address,address)": {
        "details": "Emitted when `account` is granted `role`. `sender` is the account that originated the contract call, an admin role bearer except when using {AccessControl-_setupRole}."
      },
      "RoleRevoked(bytes32,address,address)": {
        "details": "Emitted when `account` is revoked `role`. `sender` is the account that originated the contract call:   - if using `revokeRole`, it is the admin role bearer   - if using `renounceRole`, it is the role bearer (i.e. `account`)"
      },
      "Transfer(address,address,uint256)": {
        "details": "Emitted when `tokenId` token is transferred from `from` to `to`."
      }
    },
    "kind": "dev",
    "methods": {
      "approve(address,uint256)": {
        "details": "See {IERC721-approve}."
      },
      "balanceOf(address)": {
        "details": "See {IERC721-balanceOf}."
      },
      "constructor": {
        "details": "NFT "
      },
      "getApproved(uint256)": {
        "details": "See {IERC721-getApproved}."
      },
      "getRoleAdmin(bytes32)": {
        "details": "Returns the admin role that controls `role`. See {grantRole} and {revokeRole}. To change a role's admin, use {_setRoleAdmin}."
      },
      "getStudentCertificates(address,string)": {
        "details": "ID",
        "params": {
          "student": "",
          "web2CourseId": "ID"
        },
        "returns": {
          "_0": "uint256[] ID"
        }
      },
      "grantRole(bytes32,address)": {
        "details": "Grants `role` to `account`. If `account` had not been already granted `role`, emits a {RoleGranted} event. Requirements: - the caller must have ``role``'s admin role. May emit a {RoleGranted} event."
      },
      "hasCertificate(address,string)": {
        "details": "",
        "params": {
          "student": "",
          "web2CourseId": "ID"
        },
        "returns": {
          "_0": "bool true"
        }
      },
      "hasRole(bytes32,address)": {
        "details": "Returns `true` if `account` has been granted `role`."
      },
      "isApprovedForAll(address,address)": {
        "details": "See {IERC721-isApprovedForAll}."
      },
      "mintCertificate(address,string,string)": {
        "details": " MINTER_ROLE",
        "params": {
          "metadataURI": "URI",
          "student": "",
          "web2CourseId": "IDWeb2"
        },
        "returns": {
          "_0": "uint256 ID"
        }
      },
      "name()": {
        "details": "See {IERC721Metadata-name}."
      },
      "ownerOf(uint256)": {
        "details": "See {IERC721-ownerOf}."
      },
      "renounceRole(bytes32,address)": {
        "details": "Revokes `role` from the calling account. Roles are often managed via {grantRole} and {revokeRole}: this function's purpose is to provide a mechanism for accounts to lose their privileges if they are compromised (such as when a trusted device is misplaced). If the calling account had been revoked `role`, emits a {RoleRevoked} event. Requirements: - the caller must be `account`. May emit a {RoleRevoked} event."
      },
      "revokeRole(bytes32,address)": {
        "details": "Revokes `role` from `account`. If `account` had been granted `role`, emits a {RoleRevoked} event. Requirements: - the caller must have ``role``'s admin role. May emit a {RoleRevoked} event."
      },
      "safeTransferFrom(address,address,uint256)": {
        "details": "See {IERC721-safeTransferFrom}."
      },
      "safeTransferFrom(address,address,uint256,bytes)": {
        "details": "See {IERC721-safeTransferFrom}."
      },
      "setApprovalForAll(address,bool)": {
        "details": "See {IERC721-setApprovalForAll}."
      },
      "supportsInterface(bytes4)": {
        "details": " supportsInterface  ERC721AccessControl",
        "params": {
          "interfaceId": "ID"
        },
        "returns": {
          "_0": "bool true"
        }
      },
      "symbol()": {
        "details": "See {IERC721Metadata-symbol}."
      },
      "tokenURI(uint256)": {
        "details": "URI ERC721tokenURIURI",
        "params": {
          "tokenId": "ID"
        },
        "returns": {
          "_0": "string URI"
        }
      },
      "transferFrom(address,address,uint256)": {
        "details": "See {IERC721-transferFrom}."
      }
    },
    "title": "CourseCertificate",
    "version": 1
  },
  "userdoc": {
    "kind": "user",
    "methods": {},
    "version": 1
  }
}