{
  "contractName": "YiDengToken",
  "abi": [
    {
      "inputs": [],
      "stateMutability": "nonpayable",
      "type": "constructor"
    },
    {
      "anonymous": false,
      "inputs": [
        {
          "indexed": true,
          "internalType": "address",
          "name": "owner",
          "type": "address"
        },
        {
          "indexed": true,
          "internalType": "address",
          "name": "spender",
          "type": "address"
        },
        {
          "indexed": false,
          "internalType": "uint256",
          "name": "value",
          "type": "uint256"
        }
      ],
      "name": "Approval",
      "type": "event"
    },
    {
      "anonymous": false,
      "inputs": [
        {
          "indexed": false,
          "internalType": "address",
          "name": "teamWallet",
          "type": "address"
        },
        {
          "indexed": false,
          "internalType": "address",
          "name": "marketingWallet",
          "type": "address"
        },
        {
          "indexed": false,
          "internalType": "address",
          "name": "communityWallet",
          "type": "address"
        }
      ],
      "name": "InitialDistributionCompleted",
      "type": "event"
    },
    {
      "anonymous": false,
      "inputs": [
        {
          "indexed": true,
          "internalType": "address",
          "name": "previousOwner",
          "type": "address"
        },
        {
          "indexed": true,
          "internalType": "address",
          "name": "newOwner",
          "type": "address"
        }
      ],
      "name": "OwnershipTransferred",
      "type": "event"
    },
    {
      "anonymous": false,
      "inputs": [
        {
          "indexed": true,
          "internalType": "address",
          "name": "buyer",
          "type": "address"
        },
        {
          "indexed": false,
          "internalType": "uint256",
          "name": "ethAmount",
          "type": "uint256"
        },
        {
          "indexed": false,
          "internalType": "uint256",
          "name": "tokenAmount",
          "type": "uint256"
        }
      ],
      "name": "TokensPurchased",
      "type": "event"
    },
    {
      "anonymous": false,
      "inputs": [
        {
          "indexed": true,
          "internalType": "address",
          "name": "seller",
          "type": "address"
        },
        {
          "indexed": false,
          "internalType": "uint256",
          "name": "tokenAmount",
          "type": "uint256"
        },
        {
          "indexed": false,
          "internalType": "uint256",
          "name": "ethAmount",
          "type": "uint256"
        }
      ],
      "name": "TokensSold",
      "type": "event"
    },
    {
      "anonymous": false,
      "inputs": [
        {
          "indexed": true,
          "internalType": "address",
          "name": "from",
          "type": "address"
        },
        {
          "indexed": true,
          "internalType": "address",
          "name": "to",
          "type": "address"
        },
        {
          "indexed": false,
          "internalType": "uint256",
          "name": "value",
          "type": "uint256"
        }
      ],
      "name": "Transfer",
      "type": "event"
    },
    {
      "stateMutability": "payable",
      "type": "fallback"
    },
    {
      "inputs": [],
      "name": "MAX_SUPPLY",
      "outputs": [
        {
          "internalType": "uint256",
          "name": "",
          "type": "uint256"
        }
      ],
      "stateMutability": "view",
      "type": "function"
    },
    {
      "inputs": [],
      "name": "TOKENS_PER_ETH",
      "outputs": [
        {
          "internalType": "uint256",
          "name": "",
          "type": "uint256"
        }
      ],
      "stateMutability": "view",
      "type": "function"
    },
    {
      "inputs": [
        {
          "internalType": "address",
          "name": "owner",
          "type": "address"
        },
        {
          "internalType": "address",
          "name": "spender",
          "type": "address"
        }
      ],
      "name": "allowance",
      "outputs": [
        {
          "internalType": "uint256",
          "name": "",
          "type": "uint256"
        }
      ],
      "stateMutability": "view",
      "type": "function"
    },
    {
      "inputs": [
        {
          "internalType": "address",
          "name": "spender",
          "type": "address"
        },
        {
          "internalType": "uint256",
          "name": "amount",
          "type": "uint256"
        }
      ],
      "name": "approve",
      "outputs": [
        {
          "internalType": "bool",
          "name": "",
          "type": "bool"
        }
      ],
      "stateMutability": "nonpayable",
      "type": "function"
    },
    {
      "inputs": [
        {
          "internalType": "address",
          "name": "account",
          "type": "address"
        }
      ],
      "name": "balanceOf",
      "outputs": [
        {
          "internalType": "uint256",
          "name": "",
          "type": "uint256"
        }
      ],
      "stateMutability": "view",
      "type": "function"
    },
    {
      "inputs": [],
      "name": "communityAllocation",
      "outputs": [
        {
          "internalType": "uint256",
          "name": "",
          "type": "uint256"
        }
      ],
      "stateMutability": "view",
      "type": "function"
    },
    {
      "inputs": [
        {
          "internalType": "address",
          "name": "spender",
          "type": "address"
        },
        {
          "internalType": "uint256",
          "name": "subtractedValue",
          "type": "uint256"
        }
      ],
      "name": "decreaseAllowance",
      "outputs": [
        {
          "internalType": "bool",
          "name": "",
          "type": "bool"
        }
      ],
      "stateMutability": "nonpayable",
      "type": "function"
    },
    {
      "inputs": [
        {
          "internalType": "address",
          "name": "spender",
          "type": "address"
        },
        {
          "internalType": "uint256",
          "name": "addedValue",
          "type": "uint256"
        }
      ],
      "name": "increaseAllowance",
      "outputs": [
        {
          "internalType": "bool",
          "name": "",
          "type": "bool"
        }
      ],
      "stateMutability": "nonpayable",
      "type": "function"
    },
    {
      "inputs": [],
      "name": "initialDistributionDone",
      "outputs": [
        {
          "internalType": "bool",
          "name": "",
          "type": "bool"
        }
      ],
      "stateMutability": "view",
      "type": "function"
    },
    {
      "inputs": [],
      "name": "marketingAllocation",
      "outputs": [
        {
          "internalType": "uint256",
          "name": "",
          "type": "uint256"
        }
      ],
      "stateMutability": "view",
      "type": "function"
    },
    {
      "inputs": [],
      "name": "name",
      "outputs": [
        {
          "internalType": "string",
          "name": "",
          "type": "string"
        }
      ],
      "stateMutability": "view",
      "type": "function"
    },
    {
      "inputs": [],
      "name": "owner",
      "outputs": [
        {
          "internalType": "address",
          "name": "",
          "type": "address"
        }
      ],
      "stateMutability": "view",
      "type": "function"
    },
    {
      "inputs": [],
      "name": "renounceOwnership",
      "outputs": [],
      "stateMutability": "nonpayable",
      "type": "function"
    },
    {
      "inputs": [],
      "name": "symbol",
      "outputs": [
        {
          "internalType": "string",
          "name": "",
          "type": "string"
        }
      ],
      "stateMutability": "view",
      "type": "function"
    },
    {
      "inputs": [],
      "name": "teamAllocation",
      "outputs": [
        {
          "internalType": "uint256",
          "name": "",
          "type": "uint256"
        }
      ],
      "stateMutability": "view",
      "type": "function"
    },
    {
      "inputs": [],
      "name": "totalSupply",
      "outputs": [
        {
          "internalType": "uint256",
          "name": "",
          "type": "uint256"
        }
      ],
      "stateMutability": "view",
      "type": "function"
    },
    {
      "inputs": [
        {
          "internalType": "address",
          "name": "to",
          "type": "address"
        },
        {
          "internalType": "uint256",
          "name": "amount",
          "type": "uint256"
        }
      ],
      "name": "transfer",
      "outputs": [
        {
          "internalType": "bool",
          "name": "",
          "type": "bool"
        }
      ],
      "stateMutability": "nonpayable",
      "type": "function"
    },
    {
      "inputs": [
        {
          "internalType": "address",
          "name": "from",
          "type": "address"
        },
        {
          "internalType": "address",
          "name": "to",
          "type": "address"
        },
        {
          "internalType": "uint256",
          "name": "amount",
          "type": "uint256"
        }
      ],
      "name": "transferFrom",
      "outputs": [
        {
          "internalType": "bool",
          "name": "",
          "type": "bool"
        }
      ],
      "stateMutability": "nonpayable",
      "type": "function"
    },
    {
      "inputs": [
        {
          "internalType": "address",
          "name": "newOwner",
          "type": "address"
        }
      ],
      "name": "transferOwnership",
      "outputs": [],
      "stateMutability": "nonpayable",
      "type": "function"
    },
    {
      "stateMutability": "payable",
      "type": "receive"
    },
    {
      "inputs": [],
      "name": "decimals",
      "outputs": [
        {
          "internalType": "uint8",
          "name": "",
          "type": "uint8"
        }
      ],
      "stateMutability": "view",
      "type": "function"
    },
    {
      "inputs": [
        {
          "internalType": "address",
          "name": "teamWallet",
          "type": "address"
        },
        {
          "internalType": "address",
          "name": "marketingWallet",
          "type": "address"
        },
        {
          "internalType": "address",
          "name": "communityWallet",
          "type": "address"
        }
      ],
      "name": "distributeInitialTokens",
      "outputs": [],
      "stateMutability": "nonpayable",
      "type": "function"
    },
    {
      "inputs": [],
      "name": "buyWithETH",
      "outputs": [],
      "stateMutability": "payable",
      "type": "function"
    },
    {
      "inputs": [
        {
          "internalType": "uint256",
          "name": "tokenAmount",
          "type": "uint256"
        }
      ],
      "name": "sellTokens",
      "outputs": [],
      "stateMutability": "nonpayable",
      "type": "function"
    },
    {
      "inputs": [],
      "name": "remainingMintableSupply",
      "outputs": [
        {
          "internalType": "uint256",
          "name": "",
          "type": "uint256"
        }
      ],
      "stateMutability": "view",
      "type": "function"
    },
    {
      "inputs": [],
      "name": "withdrawETH",
      "outputs": [],
      "stateMutability": "nonpayable",
      "type": "function"
    }
  ],
  "bytecode": "0x60806040523480156200001157600080fd5b506040518060400160405280600c81526020017f596944656e6720546f6b656e00000000000000000000000000000000000000008152506040518060400160405280600281526020017f594400000000000000000000000000000000000000000000000000000000000081525081600390816200008f91906200049c565b508060049081620000a191906200049c565b505050620000d6620000c16200014e640100000000026401000000009004565b62000156640100000000026401000000009004565b60646014621312d0620000ea9190620005b2565b620000f691906200062c565b6006819055506064600a621312d0620001109190620005b2565b6200011c91906200062c565b6007819055506064600a621312d0620001369190620005b2565b6200014291906200062c565b60088190555062000664565b600033905090565b6000600560009054906101000a900473ffffffffffffffffffffffffffffffffffffffff16905081600560006101000a81548173ffffffffffffffffffffffffffffffffffffffff021916908373ffffffffffffffffffffffffffffffffffffffff1602179055508173ffffffffffffffffffffffffffffffffffffffff168173ffffffffffffffffffffffffffffffffffffffff167f8be0079c531659141344cd1fd0a4f28419497f9722a3daafe3b4186f6b6457e060405160405180910390a35050565b600081519050919050565b7f4e487b7100000000000000000000000000000000000000000000000000000000600052604160045260246000fd5b7f4e487b7100000000000000000000000000000000000000000000000000000000600052602260045260246000fd5b600060028204905060018216806200029e57607f821691505b602082108103620002b457620002b362000256565b5b50919050565b60008190508160005260206000209050919050565b60006020601f8301049050919050565b60008160020a8302905092915050565b600060088302620003217fffffffffffffffffffffffffffffffffffffffffffffffffffffffffffffffff82620002df565b6200032d8683620002df565b95508019841693508086168417925050509392505050565b6000819050919050565b6000819050919050565b60006200037a620003746200036e8462000345565b6200034f565b62000345565b9050919050565b6000819050919050565b620003968362000359565b620003ae620003a58262000381565b848454620002ef565b825550505050565b600090565b620003c5620003b6565b620003d28184846200038b565b505050565b5b81811015620003fa57620003ee600082620003bb565b600181019050620003d8565b5050565b601f82111562000449576200041381620002ba565b6200041e84620002cf565b810160208510156200042e578190505b620004466200043d85620002cf565b830182620003d7565b50505b505050565b60008160020a8304905092915050565b600062000471600019846008026200044e565b1980831691505092915050565b60006200048c83836200045e565b9150826002028217905092915050565b620004a7826200021c565b67ffffffffffffffff811115620004c357620004c262000227565b5b620004cf825462000285565b620004dc828285620003fe565b600060209050601f831160018114620005145760008415620004ff578287015190505b6200050b85826200047e565b8655506200057b565b601f1984166200052486620002ba565b60005b828110156200054e5784890151825560018201915060208501945060208101905062000527565b868310156200056e57848901516200056a601f8916826200045e565b8355505b6001600288020188555050505b505050505050565b7f4e487b7100000000000000000000000000000000000000000000000000000000600052601160045260246000fd5b6000620005bf8262000345565b9150620005cc8362000345565b9250828202620005dc8162000345565b91508282048414831517620005f657620005f562000583565b5b5092915050565b7f4e487b7100000000000000000000000000000000000000000000000000000000600052601260045260246000fd5b6000620006398262000345565b9150620006468362000345565b925082620006595762000658620005fd565b5b828204905092915050565b61275480620006746000396000f3fe608060405260043610610187576000357c0100000000000000000000000000000000000000000000000000000000900480636c11bcd3116100ee578063a9059cbb116100a7578063dd62ed3e11610081578063dd62ed3e1461054c578063e086e5ec14610589578063e492c5a9146105a0578063f2fde38b146105c95761018e565b8063a9059cbb146104b9578063bc6e6604146104f6578063d53b4ab4146105215761018e565b80636c11bcd3146103a957806370a08231146103d2578063715018a61461040f5780638da5cb5b1461042657806395d89b4114610451578063a457c2d71461047c5761018e565b806323b872dd1161014057806323b872dd14610283578063313ce567146102c057806332cb6b0c146102eb578063349f0b901461031657806339509351146103415780636816521a1461037e5761018e565b80630535ec771461019057806306fdde03146101bb578063095ea7b3146101e6578063150d283d1461022357806315f0c2201461022d57806318160ddd146102585761018e565b3661018e57005b005b34801561019c57600080fd5b506101a56105f2565b6040516101b291906117ee565b60405180910390f35b3480156101c757600080fd5b506101d0610605565b6040516101dd9190611899565b60405180910390f35b3480156101f257600080fd5b5061020d60048036038101906102089190611954565b610697565b60405161021a91906117ee565b60405180910390f35b61022b6106ba565b005b34801561023957600080fd5b506102426107d7565b60405161024f91906119a3565b60405180910390f35b34801561026457600080fd5b5061026d6107dd565b60405161027a91906119a3565b60405180910390f35b34801561028f57600080fd5b506102aa60048036038101906102a591906119be565b6107e7565b6040516102b791906117ee565b60405180910390f35b3480156102cc57600080fd5b506102d5610816565b6040516102e29190611a2d565b60405180910390f35b3480156102f757600080fd5b5061030061081b565b60405161030d91906119a3565b60405180910390f35b34801561032257600080fd5b5061032b610822565b60405161033891906119a3565b60405180910390f35b34801561034d57600080fd5b5061036860048036038101906103639190611954565b61083f565b60405161037591906117ee565b60405180910390f35b34801561038a57600080fd5b50610393610876565b6040516103a091906119a3565b60405180910390f35b3480156103b557600080fd5b506103d060048036038101906103cb9190611a48565b61087c565b005b3480156103de57600080fd5b506103f960048036038101906103f49190611a75565b610a81565b60405161040691906119a3565b60405180910390f35b34801561041b57600080fd5b50610424610ac9565b005b34801561043257600080fd5b5061043b610add565b6040516104489190611ab1565b60405180910390f35b34801561045d57600080fd5b50610466610b07565b6040516104739190611899565b60405180910390f35b34801561048857600080fd5b506104a3600480360381019061049e9190611954565b610b99565b6040516104b091906117ee565b60405180910390f35b3480156104c557600080fd5b506104e060048036038101906104db9190611954565b610c10565b6040516104ed91906117ee565b60405180910390f35b34801561050257600080fd5b5061050b610c33565b60405161051891906119a3565b60405180910390f35b34801561052d57600080fd5b50610536610c39565b60405161054391906119a3565b60405180910390f35b34801561055857600080fd5b50610573600480360381019061056e9190611acc565b610c3f565b60405161058091906119a3565b60405180910390f35b34801561059557600080fd5b5061059e610cc6565b005b3480156105ac57600080fd5b506105c760048036038101906105c29190611b0c565b610d35565b005b3480156105d557600080fd5b506105f060048036038101906105eb9190611a75565b610e0c565b005b600960009054906101000a900460ff1681565b60606003805461061490611b8e565b80601f016020809104026020016040519081016040528092919081815260200182805461064090611b8e565b801561068d5780601f106106625761010080835404028352916020019161068d565b820191906000526020600020905b81548152906001019060200180831161067057829003601f168201915b5050505050905090565b6000806106a2610e8f565b90506106af818585610e97565b600191505092915050565b600034116106fd576040517f08c379a00000000000000000000000000000000000000000000000000000000081526004016106f490611c0b565b60405180910390fd5b6000670de0b6b3a76400006103e8346107169190611c5a565b6107209190611ccb565b9050621312d08161072f6107dd565b6107399190611cfc565b111561077a576040517f08c379a000000000000000000000000000000000000000000000000000000000815260040161077190611d7c565b60405180910390fd5b6107843382611060565b3373ffffffffffffffffffffffffffffffffffffffff167f8fafebcaf9d154343dad25669bfa277f4fbacd7ac6b0c4fed522580e040a0f3334836040516107cc929190611d9c565b60405180910390a250565b60075481565b6000600254905090565b6000806107f2610e8f565b90506107ff8582856111b6565b61080a858585611242565b60019150509392505050565b600090565b621312d081565b600061082c6107dd565b621312d061083a9190611dc5565b905090565b60008061084a610e8f565b905061086b81858561085c8589610c3f565b6108669190611cfc565b610e97565b600191505092915050565b60065481565b600081116108bf576040517f08c379a00000000000000000000000000000000000000000000000000000000081526004016108b690611e45565b60405180910390fd5b806108c933610a81565b101561090a576040517f08c379a000000000000000000000000000000000000000000000000000000000815260040161090190611eb1565b60405180910390fd5b60006103e88261091a9190611ccb565b9050803073ffffffffffffffffffffffffffffffffffffffff16311015610976576040517f08c379a000000000000000000000000000000000000000000000000000000000815260040161096d90611f1d565b60405180910390fd5b61098033836114b8565b60003373ffffffffffffffffffffffffffffffffffffffff16826040516109a690611f6e565b60006040518083038185875af1925050503d80600081146109e3576040519150601f19603f3d011682016040523d82523d6000602084013e6109e8565b606091505b5050905080610a2c576040517f08c379a0000000000000000000000000000000000000000000000000000000008152600401610a2390611fcf565b60405180910390fd5b3373ffffffffffffffffffffffffffffffffffffffff167f2dcf9433d75db0d8b1c172641f85e319ffe4ad22e108a95d1847ceb906e5195d8484604051610a74929190611d9c565b60405180910390a2505050565b60008060008373ffffffffffffffffffffffffffffffffffffffff1673ffffffffffffffffffffffffffffffffffffffff168152602001908152602001600020549050919050565b610ad1611685565b610adb6000611703565b565b6000600560009054906101000a900473ffffffffffffffffffffffffffffffffffffffff16905090565b606060048054610b1690611b8e565b80601f0160208091040260200160405190810160405280929190818152602001828054610b4290611b8e565b8015610b8f5780601f10610b6457610100808354040283529160200191610b8f565b820191906000526020600020905b815481529060010190602001808311610b7257829003601f168201915b5050505050905090565b600080610ba4610e8f565b90506000610bb28286610c3f565b905083811015610bf7576040517f08c379a0000000000000000000000000000000000000000000000000000000008152600401610bee90612061565b60405180910390fd5b610c048286868403610e97565b60019250505092915050565b600080610c1b610e8f565b9050610c28818585611242565b600191505092915050565b6103e881565b60085481565b6000600160008473ffffffffffffffffffffffffffffffffffffffff1673ffffffffffffffffffffffffffffffffffffffff16815260200190815260200160002060008373ffffffffffffffffffffffffffffffffffffffff1673ffffffffffffffffffffffffffffffffffffffff16815260200190815260200160002054905092915050565b610cce611685565b610cd6610add565b73ffffffffffffffffffffffffffffffffffffffff166108fc3073ffffffffffffffffffffffffffffffffffffffff16319081150290604051600060405180830381858888f19350505050158015610d32573d6000803e3d6000fd5b50565b610d3d611685565b600960009054906101000a900460ff1615610d8d576040517f08c379a0000000000000000000000000000000000000000000000000000000008152600401610d84906120f3565b60405180910390fd5b610d9983600654611060565b610da582600754611060565b610db181600854611060565b6001600960006101000a81548160ff0219169083151502179055507f4864f7df2cd1c07972b3dbf1a98de81ddd7d784caf0078d5e5e372b219f6695c838383604051610dff93929190612113565b60405180910390a1505050565b610e14611685565b600073ffffffffffffffffffffffffffffffffffffffff168173ffffffffffffffffffffffffffffffffffffffff1603610e83576040517f08c379a0000000000000000000000000000000000000000000000000000000008152600401610e7a906121bc565b60405180910390fd5b610e8c81611703565b50565b600033905090565b600073ffffffffffffffffffffffffffffffffffffffff168373ffffffffffffffffffffffffffffffffffffffff1603610f06576040517f08c379a0000000000000000000000000000000000000000000000000000000008152600401610efd9061224e565b60405180910390fd5b600073ffffffffffffffffffffffffffffffffffffffff168273ffffffffffffffffffffffffffffffffffffffff1603610f75576040517f08c379a0000000000000000000000000000000000000000000000000000000008152600401610f6c906122e0565b60405180910390fd5b80600160008573ffffffffffffffffffffffffffffffffffffffff1673ffffffffffffffffffffffffffffffffffffffff16815260200190815260200160002060008473ffffffffffffffffffffffffffffffffffffffff1673ffffffffffffffffffffffffffffffffffffffff168152602001908152602001600020819055508173ffffffffffffffffffffffffffffffffffffffff168373ffffffffffffffffffffffffffffffffffffffff167f8c5be1e5ebec7d5bd14f71427d1e84f3dd0314c0f7b2291e5b200ac8c7c3b9258360405161105391906119a3565b60405180910390a3505050565b600073ffffffffffffffffffffffffffffffffffffffff168273ffffffffffffffffffffffffffffffffffffffff16036110cf576040517f08c379a00000000000000000000000000000000000000000000000000000000081526004016110c69061234c565b60405180910390fd5b6110db600083836117c9565b80600260008282546110ed9190611cfc565b92505081905550806000808473ffffffffffffffffffffffffffffffffffffffff1673ffffffffffffffffffffffffffffffffffffffff168152602001908152602001600020600082825401925050819055508173ffffffffffffffffffffffffffffffffffffffff16600073ffffffffffffffffffffffffffffffffffffffff167fddf252ad1be2c89b69c2b068fc378daa952ba7f163c4a11628f55a4df523b3ef8360405161119e91906119a3565b60405180910390a36111b2600083836117ce565b5050565b60006111c28484610c3f565b90507fffffffffffffffffffffffffffffffffffffffffffffffffffffffffffffffff811461123c578181101561122e576040517f08c379a0000000000000000000000000000000000000000000000000000000008152600401611225906123b8565b60405180910390fd5b61123b8484848403610e97565b5b50505050565b600073ffffffffffffffffffffffffffffffffffffffff168373ffffffffffffffffffffffffffffffffffffffff16036112b1576040517f08c379a00000000000000000000000000000000000000000000000000000000081526004016112a89061244a565b60405180910390fd5b600073ffffffffffffffffffffffffffffffffffffffff168273ffffffffffffffffffffffffffffffffffffffff1603611320576040517f08c379a0000000000000000000000000000000000000000000000000000000008152600401611317906124dc565b60405180910390fd5b61132b8383836117c9565b60008060008573ffffffffffffffffffffffffffffffffffffffff1673ffffffffffffffffffffffffffffffffffffffff168152602001908152602001600020549050818110156113b1576040517f08c379a00000000000000000000000000000000000000000000000000000000081526004016113a89061256e565b60405180910390fd5b8181036000808673ffffffffffffffffffffffffffffffffffffffff1673ffffffffffffffffffffffffffffffffffffffff16815260200190815260200160002081905550816000808573ffffffffffffffffffffffffffffffffffffffff1673ffffffffffffffffffffffffffffffffffffffff168152602001908152602001600020600082825401925050819055508273ffffffffffffffffffffffffffffffffffffffff168473ffffffffffffffffffffffffffffffffffffffff167fddf252ad1be2c89b69c2b068fc378daa952ba7f163c4a11628f55a4df523b3ef8460405161149f91906119a3565b60405180910390a36114b28484846117ce565b50505050565b600073ffffffffffffffffffffffffffffffffffffffff168273ffffffffffffffffffffffffffffffffffffffff1603611527576040517f08c379a000000000000000000000000000000000000000000000000000000000815260040161151e90612600565b60405180910390fd5b611533826000836117c9565b60008060008473ffffffffffffffffffffffffffffffffffffffff1673ffffffffffffffffffffffffffffffffffffffff168152602001908152602001600020549050818110156115b9576040517f08c379a00000000000000000000000000000000000000000000000000000000081526004016115b090612692565b60405180910390fd5b8181036000808573ffffffffffffffffffffffffffffffffffffffff1673ffffffffffffffffffffffffffffffffffffffff1681526020019081526020016000208190555081600260008282540392505081905550600073ffffffffffffffffffffffffffffffffffffffff168373ffffffffffffffffffffffffffffffffffffffff167fddf252ad1be2c89b69c2b068fc378daa952ba7f163c4a11628f55a4df523b3ef8460405161166c91906119a3565b60405180910390a3611680836000846117ce565b505050565b61168d610e8f565b73ffffffffffffffffffffffffffffffffffffffff166116ab610add565b73ffffffffffffffffffffffffffffffffffffffff1614611701576040517f08c379a00000000000000000000000000000000000000000000000000000000081526004016116f8906126fe565b60405180910390fd5b565b6000600560009054906101000a900473ffffffffffffffffffffffffffffffffffffffff16905081600560006101000a81548173ffffffffffffffffffffffffffffffffffffffff021916908373ffffffffffffffffffffffffffffffffffffffff1602179055508173ffffffffffffffffffffffffffffffffffffffff168173ffffffffffffffffffffffffffffffffffffffff167f8be0079c531659141344cd1fd0a4f28419497f9722a3daafe3b4186f6b6457e060405160405180910390a35050565b505050565b505050565b60008115159050919050565b6117e8816117d3565b82525050565b600060208201905061180360008301846117df565b92915050565b600081519050919050565b600082825260208201905092915050565b60005b83811015611843578082015181840152602081019050611828565b60008484015250505050565b6000601f19601f8301169050919050565b600061186b82611809565b6118758185611814565b9350611885818560208601611825565b61188e8161184f565b840191505092915050565b600060208201905081810360008301526118b38184611860565b905092915050565b600080fd5b600073ffffffffffffffffffffffffffffffffffffffff82169050919050565b60006118eb826118c0565b9050919050565b6118fb816118e0565b811461190657600080fd5b50565b600081359050611918816118f2565b92915050565b6000819050919050565b6119318161191e565b811461193c57600080fd5b50565b60008135905061194e81611928565b92915050565b6000806040838503121561196b5761196a6118bb565b5b600061197985828601611909565b925050602061198a8582860161193f565b9150509250929050565b61199d8161191e565b82525050565b60006020820190506119b86000830184611994565b92915050565b6000806000606084860312156119d7576119d66118bb565b5b60006119e586828701611909565b93505060206119f686828701611909565b9250506040611a078682870161193f565b9150509250925092565b600060ff82169050919050565b611a2781611a11565b82525050565b6000602082019050611a426000830184611a1e565b92915050565b600060208284031215611a5e57611a5d6118bb565b5b6000611a6c8482850161193f565b91505092915050565b600060208284031215611a8b57611a8a6118bb565b5b6000611a9984828501611909565b91505092915050565b611aab816118e0565b82525050565b6000602082019050611ac66000830184611aa2565b92915050565b60008060408385031215611ae357611ae26118bb565b5b6000611af185828601611909565b9250506020611b0285828601611909565b9150509250929050565b600080600060608486031215611b2557611b246118bb565b5b6000611b3386828701611909565b9350506020611b4486828701611909565b9250506040611b5586828701611909565b9150509250925092565b7f4e487b7100000000000000000000000000000000000000000000000000000000600052602260045260246000fd5b60006002820490506001821680611ba657607f821691505b602082108103611bb957611bb8611b5f565b5b50919050565b7f4d7573742073656e642045544800000000000000000000000000000000000000600082015250565b6000611bf5600d83611814565b9150611c0082611bbf565b602082019050919050565b60006020820190508181036000830152611c2481611be8565b9050919050565b7f4e487b7100000000000000000000000000000000000000000000000000000000600052601160045260246000fd5b6000611c658261191e565b9150611c708361191e565b9250828202611c7e8161191e565b91508282048414831517611c9557611c94611c2b565b5b5092915050565b7f4e487b7100000000000000000000000000000000000000000000000000000000600052601260045260246000fd5b6000611cd68261191e565b9150611ce18361191e565b925082611cf157611cf0611c9c565b5b828204905092915050565b6000611d078261191e565b9150611d128361191e565b9250828201905080821115611d2a57611d29611c2b565b5b92915050565b7f576f756c6420657863656564206d617820737570706c79000000000000000000600082015250565b6000611d66601783611814565b9150611d7182611d30565b602082019050919050565b60006020820190508181036000830152611d9581611d59565b9050919050565b6000604082019050611db16000830185611994565b611dbe6020830184611994565b9392505050565b6000611dd08261191e565b9150611ddb8361191e565b9250828203905081811115611df357611df2611c2b565b5b92915050565b7f416d6f756e74206d7573742062652067726561746572207468616e2030000000600082015250565b6000611e2f601d83611814565b9150611e3a82611df9565b602082019050919050565b60006020820190508181036000830152611e5e81611e22565b9050919050565b7f496e73756666696369656e742062616c616e6365000000000000000000000000600082015250565b6000611e9b601483611814565b9150611ea682611e65565b602082019050919050565b60006020820190508181036000830152611eca81611e8e565b9050919050565b7f496e73756666696369656e742045544820696e20636f6e747261637400000000600082015250565b6000611f07601c83611814565b9150611f1282611ed1565b602082019050919050565b60006020820190508181036000830152611f3681611efa565b9050919050565b600081905092915050565b50565b6000611f58600083611f3d565b9150611f6382611f48565b600082019050919050565b6000611f7982611f4b565b9150819050919050565b7f455448207472616e73666572206661696c656400000000000000000000000000600082015250565b6000611fb9601383611814565b9150611fc482611f83565b602082019050919050565b60006020820190508181036000830152611fe881611fac565b9050919050565b7f45524332303a2064656372656173656420616c6c6f77616e63652062656c6f7760008201527f207a65726f000000000000000000000000000000000000000000000000000000602082015250565b600061204b602583611814565b915061205682611fef565b604082019050919050565b6000602082019050818103600083015261207a8161203e565b9050919050565b7f496e697469616c20646973747269627574696f6e20616c726561647920646f6e60008201527f6500000000000000000000000000000000000000000000000000000000000000602082015250565b60006120dd602183611814565b91506120e882612081565b604082019050919050565b6000602082019050818103600083015261210c816120d0565b9050919050565b60006060820190506121286000830186611aa2565b6121356020830185611aa2565b6121426040830184611aa2565b949350505050565b7f4f776e61626c653a206e6577206f776e657220697320746865207a65726f206160008201527f6464726573730000000000000000000000000000000000000000000000000000602082015250565b60006121a6602683611814565b91506121b18261214a565b604082019050919050565b600060208201905081810360008301526121d581612199565b9050919050565b7f45524332303a20617070726f76652066726f6d20746865207a65726f2061646460008201527f7265737300000000000000000000000000000000000000000000000000000000602082015250565b6000612238602483611814565b9150612243826121dc565b604082019050919050565b600060208201905081810360008301526122678161222b565b9050919050565b7f45524332303a20617070726f766520746f20746865207a65726f20616464726560008201527f7373000000000000000000000000000000000000000000000000000000000000602082015250565b60006122ca602283611814565b91506122d58261226e565b604082019050919050565b600060208201905081810360008301526122f9816122bd565b9050919050565b7f45524332303a206d696e7420746f20746865207a65726f206164647265737300600082015250565b6000612336601f83611814565b915061234182612300565b602082019050919050565b6000602082019050818103600083015261236581612329565b9050919050565b7f45524332303a20696e73756666696369656e7420616c6c6f77616e6365000000600082015250565b60006123a2601d83611814565b91506123ad8261236c565b602082019050919050565b600060208201905081810360008301526123d181612395565b9050919050565b7f45524332303a207472616e736665722066726f6d20746865207a65726f20616460008201527f6472657373000000000000000000000000000000000000000000000000000000602082015250565b6000612434602583611814565b915061243f826123d8565b604082019050919050565b6000602082019050818103600083015261246381612427565b9050919050565b7f45524332303a207472616e7366657220746f20746865207a65726f206164647260008201527f6573730000000000000000000000000000000000000000000000000000000000602082015250565b60006124c6602383611814565b91506124d18261246a565b604082019050919050565b600060208201905081810360008301526124f5816124b9565b9050919050565b7f45524332303a207472616e7366657220616d6f756e742065786365656473206260008201527f616c616e63650000000000000000000000000000000000000000000000000000602082015250565b6000612558602683611814565b9150612563826124fc565b604082019050919050565b600060208201905081810360008301526125878161254b565b9050919050565b7f45524332303a206275726e2066726f6d20746865207a65726f2061646472657360008201527f7300000000000000000000000000000000000000000000000000000000000000602082015250565b60006125ea602183611814565b91506125f58261258e565b604082019050919050565b60006020820190508181036000830152612619816125dd565b9050919050565b7f45524332303a206275726e20616d6f756e7420657863656564732062616c616e60008201527f6365000000000000000000000000000000000000000000000000000000000000602082015250565b600061267c602283611814565b915061268782612620565b604082019050919050565b600060208201905081810360008301526126ab8161266f565b9050919050565b7f4f776e61626c653a2063616c6c6572206973206e6f7420746865206f776e6572600082015250565b60006126e8602083611814565b91506126f3826126b2565b602082019050919050565b60006020820190508181036000830152612717816126db565b905091905056fea2646970667358221220f93e47715e250635b9bd97518a4409bbf43016005940b5a1b516b8fce07f38b464736f6c63430008140033",
  "immutableReferences": {},
  "source": "// SPDX-License-Identifier: MIT\npragma solidity ^0.8.0;\n\n//  OpenZeppelin  ERC20 \nimport \"@openzeppelin/contracts/token/ERC20/ERC20.sol\";\n//  OpenZeppelin \nimport \"@openzeppelin/contracts/access/Ownable.sol\";\n\n/**\n * @title YiDengToken\n * @dev ERC20\n * \n */\ncontract YiDengToken is ERC20, Ownable {\n    //  ETH  YD 1 ETH = 1000 YD\n    uint256 public constant TOKENS_PER_ETH = 1000;\n    // 125 YD\n    uint256 public constant MAX_SUPPLY = 1250000;\n\n    // 20% = 25 YD\n    uint256 public teamAllocation;\n    // 10% = 12.5 YD\n    uint256 public marketingAllocation;\n    // 10% = 12.5 YD\n    uint256 public communityAllocation;\n    //  60% = 75 YD \n\n    // \n    bool public initialDistributionDone;\n    \n    /**\n     * @dev decimals0\n     * @return \n     */\n    function decimals() public view virtual override returns (uint8) {\n        return 0;\n    }\n    \n    // \n    /**\n     * @dev ETH\n     * @param buyer \n     * @param ethAmount ETH\n     * @param tokenAmount \n     */\n    event TokensPurchased(\n        address indexed buyer,\n        uint256 ethAmount,\n        uint256 tokenAmount\n    );\n    \n    /**\n     * @dev ETH\n     * @param seller \n     * @param tokenAmount \n     * @param ethAmount ETH\n     */\n    event TokensSold(\n        address indexed seller,\n        uint256 tokenAmount,\n        uint256 ethAmount\n    );\n    \n    /**\n     * @dev \n     * @param teamWallet \n     * @param marketingWallet \n     * @param communityWallet \n     */\n    event InitialDistributionCompleted(\n        address teamWallet,\n        address marketingWallet,\n        address communityWallet\n    );\n\n    /**\n     * @dev  \"YiDeng Token\" \"YD\"\n     * \n     */\n    constructor() ERC20(\"YiDeng Token\", \"YD\") {\n        // \n        teamAllocation = (MAX_SUPPLY * 20) / 100; // 20% \n        marketingAllocation = (MAX_SUPPLY * 10) / 100; // 10% \n        communityAllocation = (MAX_SUPPLY * 10) / 100; // 10% \n    }\n\n    /**\n     * @dev \n     * \n     * @param teamWallet \n     * @param marketingWallet \n     * @param communityWallet \n     */\n    function distributeInitialTokens(\n        address teamWallet, // \n        address marketingWallet, // \n        address communityWallet // \n    ) external onlyOwner {\n        require(!initialDistributionDone, \"Initial distribution already done\");\n\n        _mint(teamWallet, teamAllocation); // \n        _mint(marketingWallet, marketingAllocation); // \n        _mint(communityWallet, communityAllocation); // \n\n        initialDistributionDone = true;\n        emit InitialDistributionCompleted(\n            teamWallet,\n            marketingWallet,\n            communityWallet\n        );\n    }\n\n    /**\n     * @dev ETHYD\n     * ETHTOKENS_PER_ETH\n     */\n    function buyWithETH() external payable {\n        require(msg.value > 0, \"Must send ETH\");\n\n      uint256 tokenAmount = (msg.value * TOKENS_PER_ETH) / 1 ether;\n        require(\n            totalSupply() + tokenAmount <= MAX_SUPPLY,\n            \"Would exceed max supply\"\n        );\n\n        _mint(msg.sender, tokenAmount);\n        emit TokensPurchased(msg.sender, msg.value, tokenAmount);\n    }\n\n    /**\n     * @dev YiDengETH\n     * TOKENS_PER_ETHETH\n     * @param tokenAmount \n     */\n    function sellTokens(uint256 tokenAmount) external {\n        require(tokenAmount > 0, \"Amount must be greater than 0\");\n        require(balanceOf(msg.sender) >= tokenAmount, \"Insufficient balance\");\n\n        // ETH\n        uint256 ethAmount = tokenAmount / TOKENS_PER_ETH;\n        require(\n            address(this).balance >= ethAmount,\n            \"Insufficient ETH in contract\"\n        );\n\n        // \n        _burn(msg.sender, tokenAmount);\n\n        // ETH\n        (bool success, ) = payable(msg.sender).call{value: ethAmount}(\"\");\n        require(success, \"ETH transfer failed\");\n\n        emit TokensSold(msg.sender, tokenAmount, ethAmount);\n    }\n\n    /**\n     * @dev \n     * @return \n     */\n    function remainingMintableSupply() public view returns (uint256) {\n        return MAX_SUPPLY - totalSupply();\n    }\n\n    /**\n     * @dev ETH\n     * \n     * \n     */\n    function withdrawETH() external onlyOwner {\n        //\n        payable(owner()).transfer(address(this).balance);\n    }\n\n    /**\n     * @dev ETH\n     */\n    receive() external payable {}\n\n    /**\n     * @dev ETH\n     */\n    fallback() external payable {}\n}\n",
  "sourcePath": "/Users/xiaoai/git/web3-university-contract/contracts/YiDengToken.sol",
  "compiler": {
    "name": "solc",
    "version": "0.8.20+commit.a1b79de6.Emscripten.clang"
  },
  "schemaVersion": "3.4.16",
  "updatedAt": "2025-03-31T14:23:49.325Z",
  "devdoc": {
    "details": "ERC20 ",
    "events": {
      "Approval(address,address,uint256)": {
        "details": "Emitted when the allowance of a `spender` for an `owner` is set by a call to {approve}. `value` is the new allowance."
      },
      "InitialDistributionCompleted(address,address,address)": {
        "details": "",
        "params": {
          "communityWallet": "",
          "marketingWallet": "",
          "teamWallet": ""
        }
      },
      "TokensPurchased(address,uint256,uint256)": {
        "details": "ETH",
        "params": {
          "buyer": "",
          "ethAmount": "ETH",
          "tokenAmount": ""
        }
      },
      "TokensSold(address,uint256,uint256)": {
        "details": "ETH",
        "params": {
          "ethAmount": "ETH",
          "seller": "",
          "tokenAmount": ""
        }
      },
      "Transfer(address,address,uint256)": {
        "details": "Emitted when `value` tokens are moved from one account (`from`) to another (`to`). Note that `value` may be zero."
      }
    },
    "kind": "dev",
    "methods": {
      "allowance(address,address)": {
        "details": "See {IERC20-allowance}."
      },
      "approve(address,uint256)": {
        "details": "See {IERC20-approve}. NOTE: If `amount` is the maximum `uint256`, the allowance is not updated on `transferFrom`. This is semantically equivalent to an infinite approval. Requirements: - `spender` cannot be the zero address."
      },
      "balanceOf(address)": {
        "details": "See {IERC20-balanceOf}."
      },
      "buyWithETH()": {
        "details": "ETHYD ETHTOKENS_PER_ETH"
      },
      "constructor": {
        "details": " \"YiDeng Token\" \"YD\" "
      },
      "decimals()": {
        "details": "decimals0",
        "returns": {
          "_0": ""
        }
      },
      "decreaseAllowance(address,uint256)": {
        "details": "Atomically decreases the allowance granted to `spender` by the caller. This is an alternative to {approve} that can be used as a mitigation for problems described in {IERC20-approve}. Emits an {Approval} event indicating the updated allowance. Requirements: - `spender` cannot be the zero address. - `spender` must have allowance for the caller of at least `subtractedValue`."
      },
      "distributeInitialTokens(address,address,address)": {
        "details": " ",
        "params": {
          "communityWallet": "",
          "marketingWallet": "",
          "teamWallet": ""
        }
      },
      "increaseAllowance(address,uint256)": {
        "details": "Atomically increases the allowance granted to `spender` by the caller. This is an alternative to {approve} that can be used as a mitigation for problems described in {IERC20-approve}. Emits an {Approval} event indicating the updated allowance. Requirements: - `spender` cannot be the zero address."
      },
      "name()": {
        "details": "Returns the name of the token."
      },
      "owner()": {
        "details": "Returns the address of the current owner."
      },
      "remainingMintableSupply()": {
        "details": "",
        "returns": {
          "_0": ""
        }
      },
      "renounceOwnership()": {
        "details": "Leaves the contract without owner. It will not be possible to call `onlyOwner` functions. Can only be called by the current owner. NOTE: Renouncing ownership will leave the contract without an owner, thereby disabling any functionality that is only available to the owner."
      },
      "sellTokens(uint256)": {
        "details": "YiDengETH TOKENS_PER_ETHETH",
        "params": {
          "tokenAmount": ""
        }
      },
      "symbol()": {
        "details": "Returns the symbol of the token, usually a shorter version of the name."
      },
      "totalSupply()": {
        "details": "See {IERC20-totalSupply}."
      },
      "transfer(address,uint256)": {
        "details": "See {IERC20-transfer}. Requirements: - `to` cannot be the zero address. - the caller must have a balance of at least `amount`."
      },
      "transferFrom(address,address,uint256)": {
        "details": "See {IERC20-transferFrom}. Emits an {Approval} event indicating the updated allowance. This is not required by the EIP. See the note at the beginning of {ERC20}. NOTE: Does not update the allowance if the current allowance is the maximum `uint256`. Requirements: - `from` and `to` cannot be the zero address. - `from` must have a balance of at least `amount`. - the caller must have allowance for ``from``'s tokens of at least `amount`."
      },
      "transferOwnership(address)": {
        "details": "Transfers ownership of the contract to a new account (`newOwner`). Can only be called by the current owner."
      },
      "withdrawETH()": {
        "details": "ETH  "
      }
    },
    "title": "YiDengToken",
    "version": 1
  },
  "userdoc": {
    "kind": "user",
    "methods": {},
    "version": 1
  }
}